{
  "contractName": "CheckOut",
  "abi": [
    {
      "constant": true,
      "inputs": [
        {
          "name": "",
          "type": "uint256"
        }
      ],
      "name": "transactionList",
      "outputs": [
        {
          "name": "",
          "type": "address"
        }
      ],
      "payable": false,
      "stateMutability": "view",
      "type": "function"
    },
    {
      "constant": false,
      "inputs": [
        {
          "name": "_transId",
          "type": "address"
        },
        {
          "name": "_itemIds",
          "type": "address[]"
        },
        {
          "name": "_seller",
          "type": "address"
        },
        {
          "name": "_buyer",
          "type": "address"
        },
        {
          "name": "_price",
          "type": "uint256"
        }
      ],
      "name": "setTransaction",
      "outputs": [],
      "payable": false,
      "stateMutability": "nonpayable",
      "type": "function"
    },
    {
      "constant": true,
      "inputs": [],
      "name": "getTransactions",
      "outputs": [
        {
          "name": "",
          "type": "address[]"
        }
      ],
      "payable": false,
      "stateMutability": "view",
      "type": "function"
    },
    {
      "constant": true,
      "inputs": [
        {
          "name": "_transId",
          "type": "address"
        }
      ],
      "name": "getTransaction",
      "outputs": [
        {
          "name": "",
          "type": "address[]"
        },
        {
          "name": "",
          "type": "address"
        },
        {
          "name": "",
          "type": "address"
        },
        {
          "name": "",
          "type": "uint256"
        }
      ],
      "payable": false,
      "stateMutability": "view",
      "type": "function"
    },
    {
      "constant": true,
      "inputs": [],
      "name": "countTransactions",
      "outputs": [
        {
          "name": "",
          "type": "uint256"
        }
      ],
      "payable": false,
      "stateMutability": "view",
      "type": "function"
    }
  ],
  "bytecode": "0x6060604052341561000f57600080fd5b6108a18061001e6000396000f30060606040526004361061006d576000357c0100000000000000000000000000000000000000000000000000000000900463ffffffff16806304ef5b21146100725780637bb86379146100d557806383920e90146101d0578063bdf2f6f71461023a578063f81fc230146102fa575b600080fd5b341561007d57600080fd5b6100936004808035906020019091905050610323565b604051808273ffffffffffffffffffffffffffffffffffffffff1673ffffffffffffffffffffffffffffffffffffffff16815260200191505060405180910390f35b34156100e057600080fd5b61010c600480803573ffffffffffffffffffffffffffffffffffffffff16906020019091905050610362565b60405180806020018573ffffffffffffffffffffffffffffffffffffffff1673ffffffffffffffffffffffffffffffffffffffff1681526020018473ffffffffffffffffffffffffffffffffffffffff1673ffffffffffffffffffffffffffffffffffffffff168152602001838152602001828103825286818151815260200191508051906020019060200280838360005b838110156101b957808201518184015260208101905061019e565b505050509050019550505050505060405180910390f35b34156101db57600080fd5b6101e361054d565b6040518080602001828103825283818151815260200191508051906020019060200280838360005b8381101561022657808201518184015260208101905061020b565b505050509050019250505060405180910390f35b341561024557600080fd5b6102f8600480803573ffffffffffffffffffffffffffffffffffffffff169060200190919080359060200190820180359060200190808060200260200160405190810160405280939291908181526020018383602002808284378201915050505050509190803573ffffffffffffffffffffffffffffffffffffffff1690602001909190803573ffffffffffffffffffffffffffffffffffffffff169060200190919080359060200190919050506105e1565b005b341561030557600080fd5b61030d610736565b6040518082815260200191505060405180910390f35b60018181548110151561033257fe5b90600052602060002090016000915054906101000a900473ffffffffffffffffffffffffffffffffffffffff1681565b61036a610743565b60008060008060008673ffffffffffffffffffffffffffffffffffffffff1673ffffffffffffffffffffffffffffffffffffffff1681526020019081526020016000206000016000808773ffffffffffffffffffffffffffffffffffffffff1673ffffffffffffffffffffffffffffffffffffffff16815260200190815260200160002060010160009054906101000a900473ffffffffffffffffffffffffffffffffffffffff166000808873ffffffffffffffffffffffffffffffffffffffff1673ffffffffffffffffffffffffffffffffffffffff16815260200190815260200160002060020160009054906101000a900473ffffffffffffffffffffffffffffffffffffffff166000808973ffffffffffffffffffffffffffffffffffffffff1673ffffffffffffffffffffffffffffffffffffffff168152602001908152602001600020600301548380548060200260200160405190810160405280929190818152602001828054801561053757602002820191906000526020600020905b8160009054906101000a900473ffffffffffffffffffffffffffffffffffffffff1673ffffffffffffffffffffffffffffffffffffffff16815260200190600101908083116104ed575b5050505050935093509350935093509193509193565b610555610743565b60018054806020026020016040519081016040528092919081815260200182805480156105d757602002820191906000526020600020905b8160009054906101000a900473ffffffffffffffffffffffffffffffffffffffff1673ffffffffffffffffffffffffffffffffffffffff168152602001906001019080831161058d575b5050505050905090565b60008060008773ffffffffffffffffffffffffffffffffffffffff1673ffffffffffffffffffffffffffffffffffffffff16815260200190815260200160002090508481600001908051906020019061063b929190610757565b50838160010160006101000a81548173ffffffffffffffffffffffffffffffffffffffff021916908373ffffffffffffffffffffffffffffffffffffffff160217905550828160020160006101000a81548173ffffffffffffffffffffffffffffffffffffffff021916908373ffffffffffffffffffffffffffffffffffffffff160217905550818160030181905550600180548060010182816106df91906107e1565b9160005260206000209001600088909190916101000a81548173ffffffffffffffffffffffffffffffffffffffff021916908373ffffffffffffffffffffffffffffffffffffffff16021790555050505050505050565b6000600180549050905090565b602060405190810160405280600081525090565b8280548282559060005260206000209081019282156107d0579160200282015b828111156107cf5782518260006101000a81548173ffffffffffffffffffffffffffffffffffffffff021916908373ffffffffffffffffffffffffffffffffffffffff16021790555091602001919060010190610777565b5b5090506107dd919061080d565b5090565b815481835581811511610808578183600052602060002091820191016108079190610850565b5b505050565b61084d91905b8082111561084957600081816101000a81549073ffffffffffffffffffffffffffffffffffffffff021916905550600101610813565b5090565b90565b61087291905b8082111561086e576000816000905550600101610856565b5090565b905600a165627a7a72305820799a9bc36f9267a077c3db887ac4f269f61d13bad5ca839bc41d492fe652a8420029",
  "source": "pragma solidity ^0.4.2;\n\ncontract CheckOut {\n    \n    struct Transaction {\n        address[] itemIds;\n        address seller;\n        address buyer;\n        uint price;\n    }\n    \n    mapping (address => Transaction) transactions;\n    address[] public transactionList;\n    \n    \n    function setTransaction(address _transId, address[] _itemIds, \n    address _seller, address _buyer,  uint _price) public { \n        var transaction = transactions[_transId];\n       transaction.itemIds = _itemIds;\n       transaction.seller = _seller;\n       transaction.buyer = _buyer;\n       transaction.price = _price;\n       transactionList.push(_transId);\n    }\n    \n    function getTransactions() view public returns (address[]) {\n       return (transactionList);\n    }\n   \n    function getTransaction(address _transId) view public returns (address[], \n    address, address, uint) {\n        return (transactions[_transId].itemIds, transactions[_transId].seller, \n        transactions[_transId].buyer, transactions[_transId].price);\n    }\n    \n    function countTransactions() view public returns (uint) {\n        return transactionList.length;\n    }\n}",
  "sourcePath": "/Users/Yufei/Github/Decentralised-Shopping-Cart/PetShop/contracts/CheckOut.sol",
  "compiler": {
    "name": "solc",
    "version": "0.4.21+commit.dfe3193c.Emscripten.clang"
  },
  "schemaVersion": "2.0.0",
  "updatedAt": "2018-04-23T06:57:37.169Z"
}