{
  "contractName": "Controller",
  "abi": [
    {
      "constant": false,
      "inputs": [
        {
          "name": "_accountId",
          "type": "address"
        },
        {
          "name": "_cartId",
          "type": "address"
        },
        {
          "name": "_prodCartId",
          "type": "address"
        },
        {
          "name": "_balance",
          "type": "uint256"
        }
      ],
      "name": "setAccount",
      "outputs": [],
      "payable": false,
      "stateMutability": "nonpayable",
      "type": "function"
    },
    {
      "constant": true,
      "inputs": [
        {
          "name": "_accountId",
          "type": "address"
        }
      ],
      "name": "getAccount",
      "outputs": [
        {
          "name": "",
          "type": "address[]"
        },
        {
          "name": "",
          "type": "address[]"
        },
        {
          "name": "",
          "type": "uint256"
        },
        {
          "name": "",
          "type": "address[]"
        }
      ],
      "payable": false,
      "stateMutability": "view",
      "type": "function"
    },
    {
      "constant": false,
      "inputs": [
        {
          "name": "_userId",
          "type": "address"
        },
        {
          "name": "_cartId",
          "type": "address"
        },
        {
          "name": "_puppiesIds",
          "type": "address[]"
        }
      ],
      "name": "setCart",
      "outputs": [],
      "payable": false,
      "stateMutability": "nonpayable",
      "type": "function"
    },
    {
      "constant": true,
      "inputs": [
        {
          "name": "_cartId",
          "type": "address"
        }
      ],
      "name": "getCart",
      "outputs": [
        {
          "name": "",
          "type": "address[]"
        }
      ],
      "payable": false,
      "stateMutability": "view",
      "type": "function"
    },
    {
      "constant": false,
      "inputs": [
        {
          "name": "_userId",
          "type": "address"
        },
        {
          "name": "_productId",
          "type": "address"
        },
        {
          "name": "_puppiesIds",
          "type": "address[]"
        }
      ],
      "name": "setProduct",
      "outputs": [],
      "payable": false,
      "stateMutability": "nonpayable",
      "type": "function"
    },
    {
      "constant": true,
      "inputs": [
        {
          "name": "_productId",
          "type": "address"
        }
      ],
      "name": "getProducts",
      "outputs": [
        {
          "name": "",
          "type": "address[]"
        }
      ],
      "payable": false,
      "stateMutability": "view",
      "type": "function"
    },
    {
      "constant": false,
      "inputs": [
        {
          "name": "_puppyId",
          "type": "address"
        },
        {
          "name": "_sellerId",
          "type": "address"
        },
        {
          "name": "_name",
          "type": "string"
        },
        {
          "name": "_breed",
          "type": "string"
        },
        {
          "name": "_age",
          "type": "uint256"
        },
        {
          "name": "_birthPlace",
          "type": "string"
        },
        {
          "name": "_price",
          "type": "uint256"
        },
        {
          "name": "_image",
          "type": "string"
        },
        {
          "name": "_onSale",
          "type": "bool"
        }
      ],
      "name": "setPuppy",
      "outputs": [],
      "payable": false,
      "stateMutability": "nonpayable",
      "type": "function"
    },
    {
      "constant": true,
      "inputs": [
        {
          "name": "_puppyId",
          "type": "address"
        }
      ],
      "name": "getPuppyInfo",
      "outputs": [
        {
          "name": "",
          "type": "address"
        },
        {
          "name": "",
          "type": "string"
        },
        {
          "name": "",
          "type": "string"
        },
        {
          "name": "",
          "type": "uint256"
        },
        {
          "name": "",
          "type": "string"
        },
        {
          "name": "",
          "type": "uint256"
        },
        {
          "name": "",
          "type": "string"
        }
      ],
      "payable": false,
      "stateMutability": "view",
      "type": "function"
    },
    {
      "constant": true,
      "inputs": [
        {
          "name": "_puppyId",
          "type": "address"
        }
      ],
      "name": "getPuppyStatus",
      "outputs": [
        {
          "name": "",
          "type": "bool"
        }
      ],
      "payable": false,
      "stateMutability": "view",
      "type": "function"
    },
    {
      "constant": false,
      "inputs": [
        {
          "name": "_transId",
          "type": "address"
        },
        {
          "name": "_puppiesIds",
          "type": "address[]"
        },
        {
          "name": "_seller",
          "type": "address"
        },
        {
          "name": "_buyer",
          "type": "address"
        },
        {
          "name": "_price",
          "type": "uint256"
        },
        {
          "name": "_now",
          "type": "string"
        },
        {
          "name": "_mailing",
          "type": "string"
        }
      ],
      "name": "setTransaction",
      "outputs": [],
      "payable": false,
      "stateMutability": "nonpayable",
      "type": "function"
    },
    {
      "constant": true,
      "inputs": [
        {
          "name": "_transId",
          "type": "address"
        }
      ],
      "name": "getTransaction",
      "outputs": [
        {
          "name": "",
          "type": "address[]"
        },
        {
          "name": "",
          "type": "address"
        },
        {
          "name": "",
          "type": "address"
        },
        {
          "name": "",
          "type": "uint256"
        },
        {
          "name": "",
          "type": "string"
        },
        {
          "name": "",
          "type": "string"
        }
      ],
      "payable": false,
      "stateMutability": "view",
      "type": "function"
    },
    {
      "constant": false,
      "inputs": [
        {
          "name": "_userId",
          "type": "address"
        },
        {
          "name": "_price",
          "type": "uint256"
        }
      ],
      "name": "recharge",
      "outputs": [],
      "payable": false,
      "stateMutability": "nonpayable",
      "type": "function"
    },
    {
      "constant": false,
      "inputs": [
        {
          "name": "_transId",
          "type": "address"
        },
        {
          "name": "_puppiesIds",
          "type": "address[]"
        },
        {
          "name": "_seller",
          "type": "address"
        },
        {
          "name": "_buyer",
          "type": "address"
        },
        {
          "name": "_price",
          "type": "uint256"
        },
        {
          "name": "_cartId",
          "type": "address"
        },
        {
          "name": "_prodCartId",
          "type": "address"
        },
        {
          "name": "_cart",
          "type": "address[]"
        },
        {
          "name": "_prodCart",
          "type": "address[]"
        },
        {
          "name": "_now",
          "type": "string"
        },
        {
          "name": "_mailing",
          "type": "string"
        }
      ],
      "name": "checkOut",
      "outputs": [],
      "payable": false,
      "stateMutability": "nonpayable",
      "type": "function"
    },
    {
      "constant": false,
      "inputs": [
        {
          "name": "_puppyId",
          "type": "address"
        },
        {
          "name": "_sellerId",
          "type": "address"
        },
        {
          "name": "_name",
          "type": "string"
        },
        {
          "name": "_breed",
          "type": "string"
        },
        {
          "name": "_age",
          "type": "uint256"
        },
        {
          "name": "_birthPlace",
          "type": "string"
        },
        {
          "name": "_price",
          "type": "uint256"
        },
        {
          "name": "_image",
          "type": "string"
        }
      ],
      "name": "addPuppy",
      "outputs": [],
      "payable": false,
      "stateMutability": "nonpayable",
      "type": "function"
    },
    {
      "constant": false,
      "inputs": [
        {
          "name": "_puppyId",
          "type": "address"
        }
      ],
      "name": "markSoldPuppy",
      "outputs": [],
      "payable": false,
      "stateMutability": "nonpayable",
      "type": "function"
    },
    {
      "constant": true,
      "inputs": [],
      "name": "getPuppyList",
      "outputs": [
        {
          "name": "",
          "type": "address[]"
        }
      ],
      "payable": false,
      "stateMutability": "view",
      "type": "function"
    }
  ],
  "bytecode": "0x6060604052341561000f57600080fd5b612b478061001e6000396000f3006060604052600436106100e6576000357c0100000000000000000000000000000000000000000000000000000000900463ffffffff16806314dc13fa146100eb5780631691473c1461013c5780631d67831f146101ca578063236996c91461040157806336351c7c1461057757806352e33fb5146105b95780635fb14ccc1461064757806362bf129c1461078d5780637bb86379146107f75780637f2ee811146109ca578063a352dfcb14610b4b578063bc65dd9914610be3578063d8a895a014610de7578063f68482d714610e20578063f69c2ac314610ea0578063fbcbc0f114610f38575b600080fd5b34156100f657600080fd5b610122600480803573ffffffffffffffffffffffffffffffffffffffff1690602001909190505061105d565b604051808215151515815260200191505060405180910390f35b341561014757600080fd5b610173600480803573ffffffffffffffffffffffffffffffffffffffff169060200190919050506110b6565b6040518080602001828103825283818151815260200191508051906020019060200280838360005b838110156101b657808201518184015260208101905061019b565b505050509050019250505060405180910390f35b34156101d557600080fd5b610201600480803573ffffffffffffffffffffffffffffffffffffffff1690602001909190505061118c565b604051808873ffffffffffffffffffffffffffffffffffffffff1673ffffffffffffffffffffffffffffffffffffffff1681526020018060200180602001878152602001806020018681526020018060200185810385528b818151815260200191508051906020019080838360005b8381101561028b578082015181840152602081019050610270565b50505050905090810190601f1680156102b85780820380516001836020036101000a031916815260200191505b5085810384528a818151815260200191508051906020019080838360005b838110156102f15780820151818401526020810190506102d6565b50505050905090810190601f16801561031e5780820380516001836020036101000a031916815260200191505b50858103835288818151815260200191508051906020019080838360005b8381101561035757808201518184015260208101905061033c565b50505050905090810190601f1680156103845780820380516001836020036101000a031916815260200191505b50858103825286818151815260200191508051906020019080838360005b838110156103bd5780820151818401526020810190506103a2565b50505050905090810190601f1680156103ea5780820380516001836020036101000a031916815260200191505b509b50505050505050505050505060405180910390f35b341561040c57600080fd5b610575600480803573ffffffffffffffffffffffffffffffffffffffff1690602001909190803573ffffffffffffffffffffffffffffffffffffffff1690602001909190803590602001908201803590602001908080601f0160208091040260200160405190810160405280939291908181526020018383808284378201915050505050509190803590602001908201803590602001908080601f0160208091040260200160405190810160405280939291908181526020018383808284378201915050505050509190803590602001909190803590602001908201803590602001908080601f0160208091040260200160405190810160405280939291908181526020018383808284378201915050505050509190803590602001909190803590602001908201803590602001908080601f0160208091040260200160405190810160405280939291908181526020018383808284378201915050505050509190505061162c565b005b341561058257600080fd5b6105b7600480803573ffffffffffffffffffffffffffffffffffffffff169060200190919080359060200190919050506117b5565b005b34156105c457600080fd5b6105f0600480803573ffffffffffffffffffffffffffffffffffffffff16906020019091905050611842565b6040518080602001828103825283818151815260200191508051906020019060200280838360005b83811015610633578082015181840152602081019050610618565b505050509050019250505060405180910390f35b341561065257600080fd5b61078b600480803573ffffffffffffffffffffffffffffffffffffffff169060200190919080359060200190820180359060200190808060200260200160405190810160405280939291908181526020018383602002808284378201915050505050509190803573ffffffffffffffffffffffffffffffffffffffff1690602001909190803573ffffffffffffffffffffffffffffffffffffffff1690602001909190803590602001909190803590602001908201803590602001908080601f0160208091040260200160405190810160405280939291908181526020018383808284378201915050505050509190803590602001908201803590602001908080601f01602080910402602001604051908101604052809392919081815260200183838082843782019150505050505091905050611918565b005b341561079857600080fd5b6107a0611a3f565b6040518080602001828103825283818151815260200191508051906020019060200280838360005b838110156107e35780820151818401526020810190506107c8565b505050509050019250505060405180910390f35b341561080257600080fd5b61082e600480803573ffffffffffffffffffffffffffffffffffffffff16906020019091905050611ad3565b60405180806020018773ffffffffffffffffffffffffffffffffffffffff1673ffffffffffffffffffffffffffffffffffffffff1681526020018673ffffffffffffffffffffffffffffffffffffffff1673ffffffffffffffffffffffffffffffffffffffff168152602001858152602001806020018060200184810384528a818151815260200191508051906020019060200280838360005b838110156108e35780820151818401526020810190506108c8565b50505050905001848103835286818151815260200191508051906020019080838360005b83811015610922578082015181840152602081019050610907565b50505050905090810190601f16801561094f5780820380516001836020036101000a031916815260200191505b50848103825285818151815260200191508051906020019080838360005b8381101561098857808201518184015260208101905061096d565b50505050905090810190601f1680156109b55780820380516001836020036101000a031916815260200191505b50995050505050505050505060405180910390f35b34156109d557600080fd5b610b49600480803573ffffffffffffffffffffffffffffffffffffffff1690602001909190803573ffffffffffffffffffffffffffffffffffffffff1690602001909190803590602001908201803590602001908080601f0160208091040260200160405190810160405280939291908181526020018383808284378201915050505050509190803590602001908201803590602001908080601f0160208091040260200160405190810160405280939291908181526020018383808284378201915050505050509190803590602001909190803590602001908201803590602001908080601f0160208091040260200160405190810160405280939291908181526020018383808284378201915050505050509190803590602001909190803590602001908201803590602001908080601f016020809104026020016040519081016040528093929190818152602001838380828437820191505050505050919080351515906020019091905050611e94565b005b3415610b5657600080fd5b610be1600480803573ffffffffffffffffffffffffffffffffffffffff1690602001909190803573ffffffffffffffffffffffffffffffffffffffff1690602001909190803590602001908201803590602001908080602002602001604051908101604052809392919081815260200183836020028082843782019150505050505091905050611fb8565b005b3415610bee57600080fd5b610de5600480803573ffffffffffffffffffffffffffffffffffffffff169060200190919080359060200190820180359060200190808060200260200160405190810160405280939291908181526020018383602002808284378201915050505050509190803573ffffffffffffffffffffffffffffffffffffffff1690602001909190803573ffffffffffffffffffffffffffffffffffffffff1690602001909190803590602001909190803573ffffffffffffffffffffffffffffffffffffffff1690602001909190803573ffffffffffffffffffffffffffffffffffffffff16906020019091908035906020019082018035906020019080806020026020016040519081016040528093929190818152602001838360200280828437820191505050505050919080359060200190820180359060200190808060200260200160405190810160405280939291908181526020018383602002808284378201915050505050509190803590602001908201803590602001908080601f0160208091040260200160405190810160405280939291908181526020018383808284378201915050505050509190803590602001908201803590602001908080601f01602080910402602001604051908101604052809392919081815260200183838082843782019150505050505091905050612094565b005b3415610df257600080fd5b610e1e600480803573ffffffffffffffffffffffffffffffffffffffff1690602001909190505061235a565b005b3415610e2b57600080fd5b610e9e600480803573ffffffffffffffffffffffffffffffffffffffff1690602001909190803573ffffffffffffffffffffffffffffffffffffffff1690602001909190803573ffffffffffffffffffffffffffffffffffffffff169060200190919080359060200190919050506123b8565b005b3415610eab57600080fd5b610f36600480803573ffffffffffffffffffffffffffffffffffffffff1690602001909190803573ffffffffffffffffffffffffffffffffffffffff16906020019091908035906020019082018035906020019080806020026020016040519081016040528093929190818152602001838360200280828437820191505050505050919050506124e4565b005b3415610f4357600080fd5b610f6f600480803573ffffffffffffffffffffffffffffffffffffffff169060200190919050506125c0565b60405180806020018060200185815260200180602001848103845288818151815260200191508051906020019060200280838360005b83811015610fc0578082015181840152602081019050610fa5565b50505050905001848103835287818151815260200191508051906020019060200280838360005b83811015611002578082015181840152602081019050610fe7565b50505050905001848103825285818151815260200191508051906020019060200280838360005b83811015611044578082015181840152602081019050611029565b5050505090500197505050505050505060405180910390f35b6000600360008373ffffffffffffffffffffffffffffffffffffffff1673ffffffffffffffffffffffffffffffffffffffff16815260200190815260200160002060070160009054906101000a900460ff169050919050565b6110be612955565b600260008373ffffffffffffffffffffffffffffffffffffffff1673ffffffffffffffffffffffffffffffffffffffff16815260200190815260200160002060000180548060200260200160405190810160405280929190818152602001828054801561118057602002820191906000526020600020905b8160009054906101000a900473ffffffffffffffffffffffffffffffffffffffff1673ffffffffffffffffffffffffffffffffffffffff1681526020019060010190808311611136575b50505050509050919050565b6000611196612969565b61119e612969565b60006111a8612969565b60006111b2612969565b600360008973ffffffffffffffffffffffffffffffffffffffff1673ffffffffffffffffffffffffffffffffffffffff16815260200190815260200160002060000160009054906101000a900473ffffffffffffffffffffffffffffffffffffffff16600360008a73ffffffffffffffffffffffffffffffffffffffff1673ffffffffffffffffffffffffffffffffffffffff168152602001908152602001600020600101600360008b73ffffffffffffffffffffffffffffffffffffffff1673ffffffffffffffffffffffffffffffffffffffff168152602001908152602001600020600201600360008c73ffffffffffffffffffffffffffffffffffffffff1673ffffffffffffffffffffffffffffffffffffffff16815260200190815260200160002060030154600360008d73ffffffffffffffffffffffffffffffffffffffff1673ffffffffffffffffffffffffffffffffffffffff168152602001908152602001600020600401600360008e73ffffffffffffffffffffffffffffffffffffffff1673ffffffffffffffffffffffffffffffffffffffff16815260200190815260200160002060050154600360008f73ffffffffffffffffffffffffffffffffffffffff1673ffffffffffffffffffffffffffffffffffffffff168152602001908152602001600020600601858054600181600116156101000203166002900480601f0160208091040260200160405190810160405280929190818152602001828054600181600116156101000203166002900480156114385780601f1061140d57610100808354040283529160200191611438565b820191906000526020600020905b81548152906001019060200180831161141b57829003601f168201915b50505050509550848054600181600116156101000203166002900480601f0160208091040260200160405190810160405280929190818152602001828054600181600116156101000203166002900480156114d45780601f106114a9576101008083540402835291602001916114d4565b820191906000526020600020905b8154815290600101906020018083116114b757829003601f168201915b50505050509450828054600181600116156101000203166002900480601f0160208091040260200160405190810160405280929190818152602001828054600181600116156101000203166002900480156115705780601f1061154557610100808354040283529160200191611570565b820191906000526020600020905b81548152906001019060200180831161155357829003601f168201915b50505050509250808054600181600116156101000203166002900480601f01602080910402602001604051908101604052809291908181526020018280546001816001161561010002031660029004801561160c5780601f106115e15761010080835404028352916020019161160c565b820191906000526020600020905b8154815290600101906020018083116115ef57829003601f168201915b505050505090509650965096509650965096509650919395979092949650565b600061164089898989898989896001611e94565b6000808973ffffffffffffffffffffffffffffffffffffffff1673ffffffffffffffffffffffffffffffffffffffff16815260200190815260200160002060010160009054906101000a900473ffffffffffffffffffffffffffffffffffffffff169050600260008273ffffffffffffffffffffffffffffffffffffffff1673ffffffffffffffffffffffffffffffffffffffff16815260200190815260200160002060000180548060010182816116f8919061297d565b916000526020600020900160008b909190916101000a81548173ffffffffffffffffffffffffffffffffffffffff021916908373ffffffffffffffffffffffffffffffffffffffff160217905550506005805480600101828161175b919061297d565b916000526020600020900160008b909190916101000a81548173ffffffffffffffffffffffffffffffffffffffff021916908373ffffffffffffffffffffffffffffffffffffffff16021790555050505050505050505050565b806000808473ffffffffffffffffffffffffffffffffffffffff1673ffffffffffffffffffffffffffffffffffffffff16815260200190815260200160002060030154016000808473ffffffffffffffffffffffffffffffffffffffff1673ffffffffffffffffffffffffffffffffffffffff168152602001908152602001600020600301819055505050565b61184a612955565b600160008373ffffffffffffffffffffffffffffffffffffffff1673ffffffffffffffffffffffffffffffffffffffff16815260200190815260200160002060000180548060200260200160405190810160405280929190818152602001828054801561190c57602002820191906000526020600020905b8160009054906101000a900473ffffffffffffffffffffffffffffffffffffffff1673ffffffffffffffffffffffffffffffffffffffff16815260200190600101908083116118c2575b50505050509050919050565b6000600460008973ffffffffffffffffffffffffffffffffffffffff1673ffffffffffffffffffffffffffffffffffffffff1681526020019081526020016000209050868160000190805190602001906119739291906129a9565b50858160010160006101000a81548173ffffffffffffffffffffffffffffffffffffffff021916908373ffffffffffffffffffffffffffffffffffffffff160217905550848160020160006101000a81548173ffffffffffffffffffffffffffffffffffffffff021916908373ffffffffffffffffffffffffffffffffffffffff16021790555083816003018190555082816004019080519060200190611a1b929190612a33565b5081816005019080519060200190611a34929190612a33565b505050505050505050565b611a47612955565b6005805480602002602001604051908101604052809291908181526020018280548015611ac957602002820191906000526020600020905b8160009054906101000a900473ffffffffffffffffffffffffffffffffffffffff1673ffffffffffffffffffffffffffffffffffffffff1681526020019060010190808311611a7f575b5050505050905090565b611adb612955565b6000806000611ae8612969565b611af0612969565b600460008873ffffffffffffffffffffffffffffffffffffffff1673ffffffffffffffffffffffffffffffffffffffff168152602001908152602001600020600001600460008973ffffffffffffffffffffffffffffffffffffffff1673ffffffffffffffffffffffffffffffffffffffff16815260200190815260200160002060010160009054906101000a900473ffffffffffffffffffffffffffffffffffffffff16600460008a73ffffffffffffffffffffffffffffffffffffffff1673ffffffffffffffffffffffffffffffffffffffff16815260200190815260200160002060020160009054906101000a900473ffffffffffffffffffffffffffffffffffffffff16600460008b73ffffffffffffffffffffffffffffffffffffffff1673ffffffffffffffffffffffffffffffffffffffff16815260200190815260200160002060030154600460008c73ffffffffffffffffffffffffffffffffffffffff1673ffffffffffffffffffffffffffffffffffffffff168152602001908152602001600020600401600460008d73ffffffffffffffffffffffffffffffffffffffff1673ffffffffffffffffffffffffffffffffffffffff16815260200190815260200160002060050185805480602002602001604051908101604052809291908181526020018280548015611d4057602002820191906000526020600020905b8160009054906101000a900473ffffffffffffffffffffffffffffffffffffffff1673ffffffffffffffffffffffffffffffffffffffff1681526020019060010190808311611cf6575b50505050509550818054600181600116156101000203166002900480601f016020809104026020016040519081016040528092919081815260200182805460018160011615610100020316600290048015611ddc5780601f10611db157610100808354040283529160200191611ddc565b820191906000526020600020905b815481529060010190602001808311611dbf57829003601f168201915b50505050509150808054600181600116156101000203166002900480601f016020809104026020016040519081016040528092919081815260200182805460018160011615610100020316600290048015611e785780601f10611e4d57610100808354040283529160200191611e78565b820191906000526020600020905b815481529060010190602001808311611e5b57829003601f168201915b5050505050905095509550955095509550955091939550919395565b6000600360008b73ffffffffffffffffffffffffffffffffffffffff1673ffffffffffffffffffffffffffffffffffffffff1681526020019081526020016000209050888160000160006101000a81548173ffffffffffffffffffffffffffffffffffffffff021916908373ffffffffffffffffffffffffffffffffffffffff16021790555087816001019080519060200190611f32929190612a33565b5086816002019080519060200190611f4b929190612a33565b5085816003018190555084816004019080519060200190611f6d929190612a33565b5083816005018190555082816006019080519060200190611f8f929190612a33565b50818160070160006101000a81548160ff02191690831515021790555050505050505050505050565b816000808573ffffffffffffffffffffffffffffffffffffffff1673ffffffffffffffffffffffffffffffffffffffff16815260200190815260200160002060000160006101000a81548173ffffffffffffffffffffffffffffffffffffffff021916908373ffffffffffffffffffffffffffffffffffffffff16021790555080600160008473ffffffffffffffffffffffffffffffffffffffff1673ffffffffffffffffffffffffffffffffffffffff168152602001908152602001600020600001908051906020019061208e9291906129a9565b50505050565b6000876000808c73ffffffffffffffffffffffffffffffffffffffff1673ffffffffffffffffffffffffffffffffffffffff16815260200190815260200160002060030154016000808c73ffffffffffffffffffffffffffffffffffffffff1673ffffffffffffffffffffffffffffffffffffffff16815260200190815260200160002060030181905550876000808b73ffffffffffffffffffffffffffffffffffffffff1673ffffffffffffffffffffffffffffffffffffffff16815260200190815260200160002060030154036000808b73ffffffffffffffffffffffffffffffffffffffff1673ffffffffffffffffffffffffffffffffffffffff168152602001908152602001600020600301819055506121b78c8c8c8c8c8888611918565b6000808b73ffffffffffffffffffffffffffffffffffffffff1673ffffffffffffffffffffffffffffffffffffffff168152602001908152602001600020600201805480600101828161220a919061297d565b916000526020600020900160008e909190916101000a81548173ffffffffffffffffffffffffffffffffffffffff021916908373ffffffffffffffffffffffffffffffffffffffff160217905550506000808a73ffffffffffffffffffffffffffffffffffffffff1673ffffffffffffffffffffffffffffffffffffffff16815260200190815260200160002060020180548060010182816122ac919061297d565b916000526020600020900160008e909190916101000a81548173ffffffffffffffffffffffffffffffffffffffff021916908373ffffffffffffffffffffffffffffffffffffffff16021790555050612306898887611fb8565b6123118a87866124e4565b600090505b8a5181101561234c5761233f8b8281518110151561233057fe5b9060200190602002015161235a565b8080600101915050612316565b505050505050505050505050565b6000600360008373ffffffffffffffffffffffffffffffffffffffff1673ffffffffffffffffffffffffffffffffffffffff16815260200190815260200160002060070160006101000a81548160ff02191690831515021790555050565b60008060008673ffffffffffffffffffffffffffffffffffffffff1673ffffffffffffffffffffffffffffffffffffffff1681526020019081526020016000209050838160000160006101000a81548173ffffffffffffffffffffffffffffffffffffffff021916908373ffffffffffffffffffffffffffffffffffffffff160217905550828160010160006101000a81548173ffffffffffffffffffffffffffffffffffffffff021916908373ffffffffffffffffffffffffffffffffffffffff1602179055508181600301819055506124b38585600060405180591061249d5750595b9080825280602002602001820160405250611fb8565b6124dd858460006040518059106124c75750595b90808252806020026020018201604052506124e4565b5050505050565b816000808573ffffffffffffffffffffffffffffffffffffffff1673ffffffffffffffffffffffffffffffffffffffff16815260200190815260200160002060010160006101000a81548173ffffffffffffffffffffffffffffffffffffffff021916908373ffffffffffffffffffffffffffffffffffffffff16021790555080600260008473ffffffffffffffffffffffffffffffffffffffff1673ffffffffffffffffffffffffffffffffffffffff16815260200190815260200160002060000190805190602001906125ba9291906129a9565b50505050565b6125c8612955565b6125d0612955565b60006125da612955565b6000806000808873ffffffffffffffffffffffffffffffffffffffff1673ffffffffffffffffffffffffffffffffffffffff16815260200190815260200160002060000160009054906101000a900473ffffffffffffffffffffffffffffffffffffffff1691506000808873ffffffffffffffffffffffffffffffffffffffff1673ffffffffffffffffffffffffffffffffffffffff16815260200190815260200160002060010160009054906101000a900473ffffffffffffffffffffffffffffffffffffffff169050600160008373ffffffffffffffffffffffffffffffffffffffff1673ffffffffffffffffffffffffffffffffffffffff168152602001908152602001600020600001600260008373ffffffffffffffffffffffffffffffffffffffff1673ffffffffffffffffffffffffffffffffffffffff1681526020019081526020016000206000016000808a73ffffffffffffffffffffffffffffffffffffffff1673ffffffffffffffffffffffffffffffffffffffff168152602001908152602001600020600301546000808b73ffffffffffffffffffffffffffffffffffffffff1673ffffffffffffffffffffffffffffffffffffffff1681526020019081526020016000206002018380548060200260200160405190810160405280929190818152602001828054801561282d57602002820191906000526020600020905b8160009054906101000a900473ffffffffffffffffffffffffffffffffffffffff1673ffffffffffffffffffffffffffffffffffffffff16815260200190600101908083116127e3575b50505050509350828054806020026020016040519081016040528092919081815260200182805480156128b557602002820191906000526020600020905b8160009054906101000a900473ffffffffffffffffffffffffffffffffffffffff1673ffffffffffffffffffffffffffffffffffffffff168152602001906001019080831161286b575b505050505092508080548060200260200160405190810160405280929190818152602001828054801561293d57602002820191906000526020600020905b8160009054906101000a900473ffffffffffffffffffffffffffffffffffffffff1673ffffffffffffffffffffffffffffffffffffffff16815260200190600101908083116128f3575b50505050509050955095509550955050509193509193565b602060405190810160405280600081525090565b602060405190810160405280600081525090565b8154818355818115116129a4578183600052602060002091820191016129a39190612ab3565b5b505050565b828054828255906000526020600020908101928215612a22579160200282015b82811115612a215782518260006101000a81548173ffffffffffffffffffffffffffffffffffffffff021916908373ffffffffffffffffffffffffffffffffffffffff160217905550916020019190600101906129c9565b5b509050612a2f9190612ad8565b5090565b828054600181600116156101000203166002900490600052602060002090601f016020900481019282601f10612a7457805160ff1916838001178555612aa2565b82800160010185558215612aa2579182015b82811115612aa1578251825591602001919060010190612a86565b5b509050612aaf9190612ab3565b5090565b612ad591905b80821115612ad1576000816000905550600101612ab9565b5090565b90565b612b1891905b80821115612b1457600081816101000a81549073ffffffffffffffffffffffffffffffffffffffff021916905550600101612ade565b5090565b905600a165627a7a72305820d2cc2c8ec370affacca44f023e5243d02c7bceeaf99dcddfaf9cdf407e0dbca20029",
  "source": "pragma solidity ^0.4.21;\n    \n/**\n * @title Controller.\n * @author Yufei Zhang\n */\ncontract Controller {\n    /*--------------------------------------------------------------------------\n     * Define all of the structures we are going to store in block chain.\n     *--------------------------------------------------------------------------\n     */\n    struct Account {\n        address cartId;          // an address point to a shopping cart\n        address prodCartId;      // an address point to puppies a user sopports\n        address[] transactions;  // a list of Transaction\n        uint balance;\n    }\n        \n    struct Cart {\n        address[] puppies;       // a list of items that are going to check out\n    }\n        \n    struct Product {\n        address[] puppies;       // a list of items that are uploaded by a user\n    }\n        \n    struct Puppy {\n        address sellerId;        // the id of the seller\n        string name;             // name of the puppy\n        string breed;            // breed of the puppy\n        uint age;                // age of the puppy\n        string birthPlace;       // birth place of the puppy\n        uint256 price;           // price of the puppy\n        string image;            // image url of the puppy\n        bool onSale;             // status of a Puppy\n    }\n        \n    struct Transaction {\n        address[] puppiesIds;    // id of multiple puppies\n        address seller;          // address of the seller\n        address buyer;           // address of the buyer\n        uint256 price;           // total price in the trade\n        string date;             // trade date\n        string mailing;          // mailing address\n    }\n        \n    /*--------------------------------------------------------------------------\n     * Define all of the mappings that we are going to use\n     *--------------------------------------------------------------------------\n     */\n    mapping (address => Account) accountsOnBC;\n    mapping (address => Cart) cartsOnBC;\n    mapping (address => Product) productsOnBC;\n    mapping (address => Puppy) puppiesOnBC;\n    mapping (address => Transaction) transactionsOnBC;\n    address[] allPuppies;\n        \n    /*--------------------------------------------------------------------------\n     * Define functions to set and get infomation of an Account.\n     *--------------------------------------------------------------------------\n     */\n    function setAccount(\n        address _accountId,\n        address _cartId, \n        address _prodCartId, \n        uint256 _balance\n    ) \n        public \n    { \n        var account = accountsOnBC[_accountId];\n        account.cartId = _cartId;\n        account.prodCartId = _prodCartId;\n        account.balance = _balance;\n        setCart(_accountId, _cartId, new address[](0));\n        setProduct(_accountId, _prodCartId, new address[](0));\n    }\n       \n    function getAccount(address _accountId) \n        view \n        public \n        returns (\n            address[], \n            address[], \n            uint256,\n            address[]\n        ) \n    {\n        address cId = accountsOnBC[_accountId].cartId;\n        address pId = accountsOnBC[_accountId].prodCartId;\n        return (\n            cartsOnBC[cId].puppies, \n            productsOnBC[pId].puppies,\n            accountsOnBC[_accountId].balance,\n            accountsOnBC[_accountId].transactions\n        );\n    } \n        \n    /*--------------------------------------------------------------------------\n     * Define functions to set and get infomation of a Cart.\n     *--------------------------------------------------------------------------\n     */\n    function setCart(\n        address _userId,\n        address _cartId,\n        address[] _puppiesIds\n    ) \n        public \n    {   \n        accountsOnBC[_userId].cartId = _cartId;\n        cartsOnBC[_cartId].puppies =  _puppiesIds;\n    }\n        \n    function getCart(address _cartId) view public returns (address[]) {\n        return (cartsOnBC[_cartId].puppies);\n    }\n        \n    /*--------------------------------------------------------------------------\n     * Define functions to set and get infomation of an product.\n     *--------------------------------------------------------------------------\n     */\n    function setProduct(\n        address _userId,\n        address _productId,\n        address[] _puppiesIds\n    ) \n        public \n    {\n        accountsOnBC[_userId].prodCartId = _productId;\n        productsOnBC[_productId].puppies =  _puppiesIds;\n    }\n    \n    function getProducts(address _productId) view public returns (address[]) {\n        return (productsOnBC[_productId].puppies);\n    }\n        \n    /*--------------------------------------------------------------------------\n     * Define functions to set and get infomation of a Puppy.\n     *--------------------------------------------------------------------------\n     */\n    function setPuppy(\n        address _puppyId,\n        address _sellerId,\n        string _name,\n        string _breed,\n        uint _age,\n        string _birthPlace,\n        uint256 _price,\n        string _image,\n        bool _onSale\n    ) \n        public \n    { \n        var puppy = puppiesOnBC[_puppyId];\n        puppy.sellerId = _sellerId;\n        puppy.name = _name;\n        puppy.breed = _breed;\n        puppy.age = _age;\n        puppy.birthPlace = _birthPlace;\n        puppy.price = _price;\n        puppy.image = _image;\n        puppy.onSale = _onSale;\n    }\n    \n    function getPuppyInfo(address _puppyId) \n        view \n        public \n        returns (\n            address,\n            string, \n            string, \n            uint,\n            string,\n            uint256,\n            string\n        ) \n    {\n        return (\n            puppiesOnBC[_puppyId].sellerId,\n            puppiesOnBC[_puppyId].name, \n            puppiesOnBC[_puppyId].breed, \n            puppiesOnBC[_puppyId].age,\n            puppiesOnBC[_puppyId].birthPlace,\n            puppiesOnBC[_puppyId].price,\n            puppiesOnBC[_puppyId].image\n        );\n    }\n    \n    function getPuppyStatus(address _puppyId) view public returns (bool) {\n        return (puppiesOnBC[_puppyId].onSale);\n    }\n     \n    /*--------------------------------------------------------------------------\n     * Define functions to set and get infomation of a Transaction.\n     *--------------------------------------------------------------------------\n     */\n    function setTransaction(\n        address _transId,\n        address[] _puppiesIds, \n        address _seller, \n        address _buyer, \n        uint256 _price,\n        string _now,\n        string _mailing\n    ) \n        public \n    { \n        var transaction = transactionsOnBC[_transId];\n        transaction.puppiesIds = _puppiesIds;\n        transaction.seller = _seller;\n        transaction.buyer = _buyer;\n        transaction.price = _price;\n        transaction.date = _now;\n        transaction.mailing = _mailing;\n    }\n       \n    function getTransaction(address _transId) \n        view \n        public \n        returns (\n            address[], \n            address, \n            address,\n            uint256,\n            string,\n            string\n        ) \n    {\n        return (\n            transactionsOnBC[_transId].puppiesIds, \n            transactionsOnBC[_transId].seller, \n            transactionsOnBC[_transId].buyer,\n            transactionsOnBC[_transId].price,\n            transactionsOnBC[_transId].date,\n            transactionsOnBC[_transId].mailing\n        );\n    }\n    \n    /*--------------------------------------------------------------------------\n     * Define othere functions that will be used in the block chain.\n     *--------------------------------------------------------------------------\n     */\n    function recharge(address _userId, uint256 _price) public {\n        accountsOnBC[_userId].balance = accountsOnBC[_userId].balance + _price;\n    }\n    \n    function checkOut(\n        // these will be store in a trasaction\n        address _transId,\n        address[] _puppiesIds,\n        address _seller,\n        address _buyer,\n        uint256 _price,\n        // these are helping to update cart and product\n        address _cartId,\n        address _prodCartId,\n        address[] _cart,\n        address[] _prodCart,\n        // tradeTime\n        string _now,\n        // mailing address\n        string _mailing\n    ) \n        public\n    {\n        // update balance\n        accountsOnBC[_seller].balance = accountsOnBC[_seller].balance + _price;\n        accountsOnBC[_buyer].balance = accountsOnBC[_buyer].balance - _price;\n        // record transaction\n        setTransaction(_transId, _puppiesIds, _seller, _buyer, _price, _now, _mailing);\n        accountsOnBC[_seller].transactions.push(_transId);\n        accountsOnBC[_buyer].transactions.push(_transId);\n        // update cart and prodcart\n        setCart(_buyer, _cartId, _cart);\n        setProduct(_seller, _prodCartId, _prodCart);\n        // update Puppy Status \n        for (uint i = 0; i < _puppiesIds.length; i++) {\n            markSoldPuppy(_puppiesIds[i]);\n        }\n    }\n    \n    function addPuppy(\n        address _puppyId,\n        address _sellerId,\n        string _name,\n        string _breed,\n        uint _age,\n        string _birthPlace,\n        uint256 _price,\n        string _image\n    )\n        public \n    {\n        setPuppy(\n            _puppyId, \n            _sellerId,\n            _name, \n            _breed, \n            _age, \n            _birthPlace, \n            _price, \n            _image, \n            true\n        );\n        address prodCartId = accountsOnBC[_sellerId].prodCartId;\n        productsOnBC[prodCartId].puppies.push(_puppyId);\n        allPuppies.push(_puppyId);\n    }\n    \n    function markSoldPuppy(address _puppyId) public {\n        puppiesOnBC[_puppyId].onSale = false;\n    }\n    \n    function getPuppyList() view public returns (address[]) {\n        return (allPuppies);\n    }\n}\n",
  "sourcePath": "/Users/vijaygao/COMP9900/project/Decentralised-Shopping-Cart/PetShop/contracts/Controller.sol",
  "compiler": {
    "name": "solc",
    "version": "0.4.21+commit.dfe3193c.Emscripten.clang"
  },
  "schemaVersion": "2.0.0",
  "updatedAt": "2018-05-12T09:22:53.657Z"
}