{
  "contractName": "Controller",
  "abi": [
    {
      "constant": false,
      "inputs": [
        {
          "name": "_accountId",
          "type": "address"
        },
        {
          "name": "_cartId",
          "type": "address"
        },
        {
          "name": "_prodCartId",
          "type": "address"
        },
        {
          "name": "_balance",
          "type": "uint256"
        }
      ],
      "name": "setAccount",
      "outputs": [],
      "payable": false,
      "stateMutability": "nonpayable",
      "type": "function"
    },
    {
      "constant": true,
      "inputs": [
        {
          "name": "_accountId",
          "type": "address"
        }
      ],
      "name": "getAccount",
      "outputs": [
        {
          "name": "",
          "type": "address[]"
        },
        {
          "name": "",
          "type": "address[]"
        },
        {
          "name": "",
          "type": "uint256"
        }
      ],
      "payable": false,
      "stateMutability": "view",
      "type": "function"
    },
    {
      "constant": false,
      "inputs": [
        {
          "name": "_userId",
          "type": "address"
        },
        {
          "name": "_cartId",
          "type": "address"
        },
        {
          "name": "_puppiesIds",
          "type": "address[]"
        }
      ],
      "name": "setCart",
      "outputs": [],
      "payable": false,
      "stateMutability": "nonpayable",
      "type": "function"
    },
    {
      "constant": true,
      "inputs": [
        {
          "name": "_cartId",
          "type": "address"
        }
      ],
      "name": "getCart",
      "outputs": [
        {
          "name": "",
          "type": "address[]"
        }
      ],
      "payable": false,
      "stateMutability": "view",
      "type": "function"
    },
    {
      "constant": false,
      "inputs": [
        {
          "name": "_userId",
          "type": "address"
        },
        {
          "name": "_productId",
          "type": "address"
        },
        {
          "name": "_puppiesIds",
          "type": "address[]"
        }
      ],
      "name": "setProduct",
      "outputs": [],
      "payable": false,
      "stateMutability": "nonpayable",
      "type": "function"
    },
    {
      "constant": true,
      "inputs": [
        {
          "name": "_productId",
          "type": "address"
        }
      ],
      "name": "getProducts",
      "outputs": [
        {
          "name": "",
          "type": "address[]"
        }
      ],
      "payable": false,
      "stateMutability": "view",
      "type": "function"
    },
    {
      "constant": false,
      "inputs": [
        {
          "name": "_puppyId",
          "type": "address"
        },
        {
          "name": "_sellerId",
          "type": "address"
        },
        {
          "name": "_name",
          "type": "string"
        },
        {
          "name": "_breed",
          "type": "string"
        },
        {
          "name": "_age",
          "type": "uint256"
        },
        {
          "name": "_birthPlace",
          "type": "string"
        },
        {
          "name": "_price",
          "type": "uint256"
        },
        {
          "name": "_image",
          "type": "string"
        },
        {
          "name": "_onSale",
          "type": "bool"
        }
      ],
      "name": "setPuppy",
      "outputs": [],
      "payable": false,
      "stateMutability": "nonpayable",
      "type": "function"
    },
    {
      "constant": true,
      "inputs": [
        {
          "name": "_puppyId",
          "type": "address"
        }
      ],
      "name": "getPuppyInfo",
      "outputs": [
        {
          "name": "",
          "type": "address"
        },
        {
          "name": "",
          "type": "string"
        },
        {
          "name": "",
          "type": "string"
        },
        {
          "name": "",
          "type": "uint256"
        },
        {
          "name": "",
          "type": "string"
        },
        {
          "name": "",
          "type": "uint256"
        },
        {
          "name": "",
          "type": "string"
        }
      ],
      "payable": false,
      "stateMutability": "view",
      "type": "function"
    },
    {
      "constant": true,
      "inputs": [
        {
          "name": "_puppyId",
          "type": "address"
        }
      ],
      "name": "getPuppyStatus",
      "outputs": [
        {
          "name": "",
          "type": "bool"
        }
      ],
      "payable": false,
      "stateMutability": "view",
      "type": "function"
    },
    {
      "constant": false,
      "inputs": [
        {
          "name": "_transId",
          "type": "address"
        },
        {
          "name": "_puppiesIds",
          "type": "address[]"
        },
        {
          "name": "_seller",
          "type": "address"
        },
        {
          "name": "_buyer",
          "type": "address"
        },
        {
          "name": "_price",
          "type": "uint256"
        }
      ],
      "name": "setTransaction",
      "outputs": [],
      "payable": false,
      "stateMutability": "nonpayable",
      "type": "function"
    },
    {
      "constant": true,
      "inputs": [
        {
          "name": "_transId",
          "type": "address"
        }
      ],
      "name": "getTransaction",
      "outputs": [
        {
          "name": "",
          "type": "address[]"
        },
        {
          "name": "",
          "type": "address"
        },
        {
          "name": "",
          "type": "address"
        },
        {
          "name": "",
          "type": "uint256"
        }
      ],
      "payable": false,
      "stateMutability": "view",
      "type": "function"
    },
    {
      "constant": false,
      "inputs": [
        {
          "name": "_userId",
          "type": "address"
        },
        {
          "name": "_price",
          "type": "uint256"
        }
      ],
      "name": "recharge",
      "outputs": [],
      "payable": false,
      "stateMutability": "nonpayable",
      "type": "function"
    },
    {
      "constant": false,
      "inputs": [
        {
          "name": "_transId",
          "type": "address"
        },
        {
          "name": "_puppiesIds",
          "type": "address[]"
        },
        {
          "name": "_seller",
          "type": "address"
        },
        {
          "name": "_buyer",
          "type": "address"
        },
        {
          "name": "_price",
          "type": "uint256"
        },
        {
          "name": "_cartId",
          "type": "address"
        },
        {
          "name": "_prodCartId",
          "type": "address"
        },
        {
          "name": "_cart",
          "type": "address[]"
        },
        {
          "name": "_prodCart",
          "type": "address[]"
        }
      ],
      "name": "checkOut",
      "outputs": [],
      "payable": false,
      "stateMutability": "nonpayable",
      "type": "function"
    },
    {
      "constant": false,
      "inputs": [
        {
          "name": "_puppyId",
          "type": "address"
        },
        {
          "name": "_sellerId",
          "type": "address"
        },
        {
          "name": "_name",
          "type": "string"
        },
        {
          "name": "_breed",
          "type": "string"
        },
        {
          "name": "_age",
          "type": "uint256"
        },
        {
          "name": "_birthPlace",
          "type": "string"
        },
        {
          "name": "_price",
          "type": "uint256"
        },
        {
          "name": "_image",
          "type": "string"
        }
      ],
      "name": "addPuppy",
      "outputs": [],
      "payable": false,
      "stateMutability": "nonpayable",
      "type": "function"
    },
    {
      "constant": false,
      "inputs": [
        {
          "name": "_puppyId",
          "type": "address"
        }
      ],
      "name": "markSoldPuppy",
      "outputs": [],
      "payable": false,
      "stateMutability": "nonpayable",
      "type": "function"
    },
    {
      "constant": true,
      "inputs": [],
      "name": "getPuppyList",
      "outputs": [
        {
          "name": "",
          "type": "address[]"
        }
      ],
      "payable": false,
      "stateMutability": "view",
      "type": "function"
    }
  ],
  "bytecode": "0x6060604052341561000f57600080fd5b6126008061001e6000396000f3006060604052600436106100e6576000357c0100000000000000000000000000000000000000000000000000000000900463ffffffff16806314dc13fa146100eb5780631691473c1461013c5780631d67831f146101ca578063236996c91461040157806336351c7c1461057757806352e33fb5146105b957806362bf129c146106475780637bb86379146106b15780637f2ee811146107ac578063a352dfcb1461092d578063bdf2f6f7146109c5578063d8a895a014610a85578063f68482d714610abe578063f69c2ac314610b3e578063fb79297e14610bd6578063fbcbc0f114610d54575b600080fd5b34156100f657600080fd5b610122600480803573ffffffffffffffffffffffffffffffffffffffff16906020019091905050610e31565b604051808215151515815260200191505060405180910390f35b341561014757600080fd5b610173600480803573ffffffffffffffffffffffffffffffffffffffff16906020019091905050610e8a565b6040518080602001828103825283818151815260200191508051906020019060200280838360005b838110156101b657808201518184015260208101905061019b565b505050509050019250505060405180910390f35b34156101d557600080fd5b610201600480803573ffffffffffffffffffffffffffffffffffffffff16906020019091905050610f60565b604051808873ffffffffffffffffffffffffffffffffffffffff1673ffffffffffffffffffffffffffffffffffffffff1681526020018060200180602001878152602001806020018681526020018060200185810385528b818151815260200191508051906020019080838360005b8381101561028b578082015181840152602081019050610270565b50505050905090810190601f1680156102b85780820380516001836020036101000a031916815260200191505b5085810384528a818151815260200191508051906020019080838360005b838110156102f15780820151818401526020810190506102d6565b50505050905090810190601f16801561031e5780820380516001836020036101000a031916815260200191505b50858103835288818151815260200191508051906020019080838360005b8381101561035757808201518184015260208101905061033c565b50505050905090810190601f1680156103845780820380516001836020036101000a031916815260200191505b50858103825286818151815260200191508051906020019080838360005b838110156103bd5780820151818401526020810190506103a2565b50505050905090810190601f1680156103ea5780820380516001836020036101000a031916815260200191505b509b50505050505050505050505060405180910390f35b341561040c57600080fd5b610575600480803573ffffffffffffffffffffffffffffffffffffffff1690602001909190803573ffffffffffffffffffffffffffffffffffffffff1690602001909190803590602001908201803590602001908080601f0160208091040260200160405190810160405280939291908181526020018383808284378201915050505050509190803590602001908201803590602001908080601f0160208091040260200160405190810160405280939291908181526020018383808284378201915050505050509190803590602001909190803590602001908201803590602001908080601f0160208091040260200160405190810160405280939291908181526020018383808284378201915050505050509190803590602001909190803590602001908201803590602001908080601f01602080910402602001604051908101604052809392919081815260200183838082843782019150505050505091905050611400565b005b341561058257600080fd5b6105b7600480803573ffffffffffffffffffffffffffffffffffffffff16906020019091908035906020019091905050611589565b005b34156105c457600080fd5b6105f0600480803573ffffffffffffffffffffffffffffffffffffffff16906020019091905050611616565b6040518080602001828103825283818151815260200191508051906020019060200280838360005b83811015610633578082015181840152602081019050610618565b505050509050019250505060405180910390f35b341561065257600080fd5b61065a6116ec565b6040518080602001828103825283818151815260200191508051906020019060200280838360005b8381101561069d578082015181840152602081019050610682565b505050509050019250505060405180910390f35b34156106bc57600080fd5b6106e8600480803573ffffffffffffffffffffffffffffffffffffffff16906020019091905050611780565b60405180806020018573ffffffffffffffffffffffffffffffffffffffff1673ffffffffffffffffffffffffffffffffffffffff1681526020018473ffffffffffffffffffffffffffffffffffffffff1673ffffffffffffffffffffffffffffffffffffffff168152602001838152602001828103825286818151815260200191508051906020019060200280838360005b8381101561079557808201518184015260208101905061077a565b505050509050019550505050505060405180910390f35b34156107b757600080fd5b61092b600480803573ffffffffffffffffffffffffffffffffffffffff1690602001909190803573ffffffffffffffffffffffffffffffffffffffff1690602001909190803590602001908201803590602001908080601f0160208091040260200160405190810160405280939291908181526020018383808284378201915050505050509190803590602001908201803590602001908080601f0160208091040260200160405190810160405280939291908181526020018383808284378201915050505050509190803590602001909190803590602001908201803590602001908080601f0160208091040260200160405190810160405280939291908181526020018383808284378201915050505050509190803590602001909190803590602001908201803590602001908080601f01602080910402602001604051908101604052809392919081815260200183838082843782019150505050505091908035151590602001909190505061196f565b005b341561093857600080fd5b6109c3600480803573ffffffffffffffffffffffffffffffffffffffff1690602001909190803573ffffffffffffffffffffffffffffffffffffffff1690602001909190803590602001908201803590602001908080602002602001604051908101604052809392919081815260200183836020028082843782019150505050505091905050611a93565b005b34156109d057600080fd5b610a83600480803573ffffffffffffffffffffffffffffffffffffffff169060200190919080359060200190820180359060200190808060200260200160405190810160405280939291908181526020018383602002808284378201915050505050509190803573ffffffffffffffffffffffffffffffffffffffff1690602001909190803573ffffffffffffffffffffffffffffffffffffffff16906020019091908035906020019091905050611b6f565b005b3415610a9057600080fd5b610abc600480803573ffffffffffffffffffffffffffffffffffffffff16906020019091905050611c62565b005b3415610ac957600080fd5b610b3c600480803573ffffffffffffffffffffffffffffffffffffffff1690602001909190803573ffffffffffffffffffffffffffffffffffffffff1690602001909190803573ffffffffffffffffffffffffffffffffffffffff16906020019091908035906020019091905050611cc0565b005b3415610b4957600080fd5b610bd4600480803573ffffffffffffffffffffffffffffffffffffffff1690602001909190803573ffffffffffffffffffffffffffffffffffffffff1690602001909190803590602001908201803590602001908080602002602001604051908101604052809392919081815260200183836020028082843782019150505050505091905050611dec565b005b3415610be157600080fd5b610d52600480803573ffffffffffffffffffffffffffffffffffffffff169060200190919080359060200190820180359060200190808060200260200160405190810160405280939291908181526020018383602002808284378201915050505050509190803573ffffffffffffffffffffffffffffffffffffffff1690602001909190803573ffffffffffffffffffffffffffffffffffffffff1690602001909190803590602001909190803573ffffffffffffffffffffffffffffffffffffffff1690602001909190803573ffffffffffffffffffffffffffffffffffffffff169060200190919080359060200190820180359060200190808060200260200160405190810160405280939291908181526020018383602002808284378201915050505050509190803590602001908201803590602001908080602002602001604051908101604052809392919081815260200183836020028082843782019150505050505091905050611ec8565b005b3415610d5f57600080fd5b610d8b600480803573ffffffffffffffffffffffffffffffffffffffff1690602001909190505061214c565b604051808060200180602001848152602001838103835286818151815260200191508051906020019060200280838360005b83811015610dd8578082015181840152602081019050610dbd565b50505050905001838103825285818151815260200191508051906020019060200280838360005b83811015610e1a578082015181840152602081019050610dff565b505050509050019550505050505060405180910390f35b6000600360008373ffffffffffffffffffffffffffffffffffffffff1673ffffffffffffffffffffffffffffffffffffffff16815260200190815260200160002060070160009054906101000a900460ff169050919050565b610e9261240e565b600260008373ffffffffffffffffffffffffffffffffffffffff1673ffffffffffffffffffffffffffffffffffffffff168152602001908152602001600020600001805480602002602001604051908101604052809291908181526020018280548015610f5457602002820191906000526020600020905b8160009054906101000a900473ffffffffffffffffffffffffffffffffffffffff1673ffffffffffffffffffffffffffffffffffffffff1681526020019060010190808311610f0a575b50505050509050919050565b6000610f6a612422565b610f72612422565b6000610f7c612422565b6000610f86612422565b600360008973ffffffffffffffffffffffffffffffffffffffff1673ffffffffffffffffffffffffffffffffffffffff16815260200190815260200160002060000160009054906101000a900473ffffffffffffffffffffffffffffffffffffffff16600360008a73ffffffffffffffffffffffffffffffffffffffff1673ffffffffffffffffffffffffffffffffffffffff168152602001908152602001600020600101600360008b73ffffffffffffffffffffffffffffffffffffffff1673ffffffffffffffffffffffffffffffffffffffff168152602001908152602001600020600201600360008c73ffffffffffffffffffffffffffffffffffffffff1673ffffffffffffffffffffffffffffffffffffffff16815260200190815260200160002060030154600360008d73ffffffffffffffffffffffffffffffffffffffff1673ffffffffffffffffffffffffffffffffffffffff168152602001908152602001600020600401600360008e73ffffffffffffffffffffffffffffffffffffffff1673ffffffffffffffffffffffffffffffffffffffff16815260200190815260200160002060050154600360008f73ffffffffffffffffffffffffffffffffffffffff1673ffffffffffffffffffffffffffffffffffffffff168152602001908152602001600020600601858054600181600116156101000203166002900480601f01602080910402602001604051908101604052809291908181526020018280546001816001161561010002031660029004801561120c5780601f106111e15761010080835404028352916020019161120c565b820191906000526020600020905b8154815290600101906020018083116111ef57829003601f168201915b50505050509550848054600181600116156101000203166002900480601f0160208091040260200160405190810160405280929190818152602001828054600181600116156101000203166002900480156112a85780601f1061127d576101008083540402835291602001916112a8565b820191906000526020600020905b81548152906001019060200180831161128b57829003601f168201915b50505050509450828054600181600116156101000203166002900480601f0160208091040260200160405190810160405280929190818152602001828054600181600116156101000203166002900480156113445780601f1061131957610100808354040283529160200191611344565b820191906000526020600020905b81548152906001019060200180831161132757829003601f168201915b50505050509250808054600181600116156101000203166002900480601f0160208091040260200160405190810160405280929190818152602001828054600181600116156101000203166002900480156113e05780601f106113b5576101008083540402835291602001916113e0565b820191906000526020600020905b8154815290600101906020018083116113c357829003601f168201915b505050505090509650965096509650965096509650919395979092949650565b60006114148989898989898989600161196f565b6000808973ffffffffffffffffffffffffffffffffffffffff1673ffffffffffffffffffffffffffffffffffffffff16815260200190815260200160002060010160009054906101000a900473ffffffffffffffffffffffffffffffffffffffff169050600260008273ffffffffffffffffffffffffffffffffffffffff1673ffffffffffffffffffffffffffffffffffffffff16815260200190815260200160002060000180548060010182816114cc9190612436565b916000526020600020900160008b909190916101000a81548173ffffffffffffffffffffffffffffffffffffffff021916908373ffffffffffffffffffffffffffffffffffffffff160217905550506005805480600101828161152f9190612436565b916000526020600020900160008b909190916101000a81548173ffffffffffffffffffffffffffffffffffffffff021916908373ffffffffffffffffffffffffffffffffffffffff16021790555050505050505050505050565b806000808473ffffffffffffffffffffffffffffffffffffffff1673ffffffffffffffffffffffffffffffffffffffff16815260200190815260200160002060030154016000808473ffffffffffffffffffffffffffffffffffffffff1673ffffffffffffffffffffffffffffffffffffffff168152602001908152602001600020600301819055505050565b61161e61240e565b600160008373ffffffffffffffffffffffffffffffffffffffff1673ffffffffffffffffffffffffffffffffffffffff1681526020019081526020016000206000018054806020026020016040519081016040528092919081815260200182805480156116e057602002820191906000526020600020905b8160009054906101000a900473ffffffffffffffffffffffffffffffffffffffff1673ffffffffffffffffffffffffffffffffffffffff1681526020019060010190808311611696575b50505050509050919050565b6116f461240e565b600580548060200260200160405190810160405280929190818152602001828054801561177657602002820191906000526020600020905b8160009054906101000a900473ffffffffffffffffffffffffffffffffffffffff1673ffffffffffffffffffffffffffffffffffffffff168152602001906001019080831161172c575b5050505050905090565b61178861240e565b6000806000600460008673ffffffffffffffffffffffffffffffffffffffff1673ffffffffffffffffffffffffffffffffffffffff168152602001908152602001600020600001600460008773ffffffffffffffffffffffffffffffffffffffff1673ffffffffffffffffffffffffffffffffffffffff16815260200190815260200160002060010160009054906101000a900473ffffffffffffffffffffffffffffffffffffffff16600460008873ffffffffffffffffffffffffffffffffffffffff1673ffffffffffffffffffffffffffffffffffffffff16815260200190815260200160002060020160009054906101000a900473ffffffffffffffffffffffffffffffffffffffff16600460008973ffffffffffffffffffffffffffffffffffffffff1673ffffffffffffffffffffffffffffffffffffffff168152602001908152602001600020600301548380548060200260200160405190810160405280929190818152602001828054801561195957602002820191906000526020600020905b8160009054906101000a900473ffffffffffffffffffffffffffffffffffffffff1673ffffffffffffffffffffffffffffffffffffffff168152602001906001019080831161190f575b5050505050935093509350935093509193509193565b6000600360008b73ffffffffffffffffffffffffffffffffffffffff1673ffffffffffffffffffffffffffffffffffffffff1681526020019081526020016000209050888160000160006101000a81548173ffffffffffffffffffffffffffffffffffffffff021916908373ffffffffffffffffffffffffffffffffffffffff16021790555087816001019080519060200190611a0d929190612462565b5086816002019080519060200190611a26929190612462565b5085816003018190555084816004019080519060200190611a48929190612462565b5083816005018190555082816006019080519060200190611a6a929190612462565b50818160070160006101000a81548160ff02191690831515021790555050505050505050505050565b816000808573ffffffffffffffffffffffffffffffffffffffff1673ffffffffffffffffffffffffffffffffffffffff16815260200190815260200160002060000160006101000a81548173ffffffffffffffffffffffffffffffffffffffff021916908373ffffffffffffffffffffffffffffffffffffffff16021790555080600160008473ffffffffffffffffffffffffffffffffffffffff1673ffffffffffffffffffffffffffffffffffffffff1681526020019081526020016000206000019080519060200190611b699291906124e2565b50505050565b6000600460008773ffffffffffffffffffffffffffffffffffffffff1673ffffffffffffffffffffffffffffffffffffffff168152602001908152602001600020905084816000019080519060200190611bca9291906124e2565b50838160010160006101000a81548173ffffffffffffffffffffffffffffffffffffffff021916908373ffffffffffffffffffffffffffffffffffffffff160217905550828160020160006101000a81548173ffffffffffffffffffffffffffffffffffffffff021916908373ffffffffffffffffffffffffffffffffffffffff160217905550818160030181905550505050505050565b6000600360008373ffffffffffffffffffffffffffffffffffffffff1673ffffffffffffffffffffffffffffffffffffffff16815260200190815260200160002060070160006101000a81548160ff02191690831515021790555050565b60008060008673ffffffffffffffffffffffffffffffffffffffff1673ffffffffffffffffffffffffffffffffffffffff1681526020019081526020016000209050838160000160006101000a81548173ffffffffffffffffffffffffffffffffffffffff021916908373ffffffffffffffffffffffffffffffffffffffff160217905550828160010160006101000a81548173ffffffffffffffffffffffffffffffffffffffff021916908373ffffffffffffffffffffffffffffffffffffffff160217905550818160030181905550611dbb85856000604051805910611da55750595b9080825280602002602001820160405250611a93565b611de585846000604051805910611dcf5750595b9080825280602002602001820160405250611dec565b5050505050565b816000808573ffffffffffffffffffffffffffffffffffffffff1673ffffffffffffffffffffffffffffffffffffffff16815260200190815260200160002060010160006101000a81548173ffffffffffffffffffffffffffffffffffffffff021916908373ffffffffffffffffffffffffffffffffffffffff16021790555080600260008473ffffffffffffffffffffffffffffffffffffffff1673ffffffffffffffffffffffffffffffffffffffff1681526020019081526020016000206000019080519060200190611ec29291906124e2565b50505050565b846000808973ffffffffffffffffffffffffffffffffffffffff1673ffffffffffffffffffffffffffffffffffffffff16815260200190815260200160002060030154016000808973ffffffffffffffffffffffffffffffffffffffff1673ffffffffffffffffffffffffffffffffffffffff16815260200190815260200160002060030181905550846000808873ffffffffffffffffffffffffffffffffffffffff1673ffffffffffffffffffffffffffffffffffffffff16815260200190815260200160002060030154036000808873ffffffffffffffffffffffffffffffffffffffff1673ffffffffffffffffffffffffffffffffffffffff16815260200190815260200160002060030181905550611fe78989898989611b6f565b6000808873ffffffffffffffffffffffffffffffffffffffff1673ffffffffffffffffffffffffffffffffffffffff168152602001908152602001600020600201805480600101828161203a9190612436565b916000526020600020900160008b909190916101000a81548173ffffffffffffffffffffffffffffffffffffffff021916908373ffffffffffffffffffffffffffffffffffffffff160217905550506000808773ffffffffffffffffffffffffffffffffffffffff1673ffffffffffffffffffffffffffffffffffffffff16815260200190815260200160002060020180548060010182816120dc9190612436565b916000526020600020900160008b909190916101000a81548173ffffffffffffffffffffffffffffffffffffffff021916908373ffffffffffffffffffffffffffffffffffffffff16021790555050612136868584611a93565b612141878483611dec565b505050505050505050565b61215461240e565b61215c61240e565b60008060008060008773ffffffffffffffffffffffffffffffffffffffff1673ffffffffffffffffffffffffffffffffffffffff16815260200190815260200160002060000160009054906101000a900473ffffffffffffffffffffffffffffffffffffffff1691506000808773ffffffffffffffffffffffffffffffffffffffff1673ffffffffffffffffffffffffffffffffffffffff16815260200190815260200160002060010160009054906101000a900473ffffffffffffffffffffffffffffffffffffffff169050600160008373ffffffffffffffffffffffffffffffffffffffff1673ffffffffffffffffffffffffffffffffffffffff168152602001908152602001600020600001600260008373ffffffffffffffffffffffffffffffffffffffff1673ffffffffffffffffffffffffffffffffffffffff1681526020019081526020016000206000016000808973ffffffffffffffffffffffffffffffffffffffff1673ffffffffffffffffffffffffffffffffffffffff168152602001908152602001600020600301548280548060200260200160405190810160405280929190818152602001828054801561237057602002820191906000526020600020905b8160009054906101000a900473ffffffffffffffffffffffffffffffffffffffff1673ffffffffffffffffffffffffffffffffffffffff1681526020019060010190808311612326575b50505050509250818054806020026020016040519081016040528092919081815260200182805480156123f857602002820191906000526020600020905b8160009054906101000a900473ffffffffffffffffffffffffffffffffffffffff1673ffffffffffffffffffffffffffffffffffffffff16815260200190600101908083116123ae575b5050505050915094509450945050509193909250565b602060405190810160405280600081525090565b602060405190810160405280600081525090565b81548183558181151161245d5781836000526020600020918201910161245c919061256c565b5b505050565b828054600181600116156101000203166002900490600052602060002090601f016020900481019282601f106124a357805160ff19168380011785556124d1565b828001600101855582156124d1579182015b828111156124d05782518255916020019190600101906124b5565b5b5090506124de919061256c565b5090565b82805482825590600052602060002090810192821561255b579160200282015b8281111561255a5782518260006101000a81548173ffffffffffffffffffffffffffffffffffffffff021916908373ffffffffffffffffffffffffffffffffffffffff16021790555091602001919060010190612502565b5b5090506125689190612591565b5090565b61258e91905b8082111561258a576000816000905550600101612572565b5090565b90565b6125d191905b808211156125cd57600081816101000a81549073ffffffffffffffffffffffffffffffffffffffff021916905550600101612597565b5090565b905600a165627a7a72305820afc5e881e85d91b2abb97b90a5d4680c1932a28d77231861d02b7bc3ecf69aea0029",
  "source": "pragma solidity ^0.4.21;\n    \n/**\n * @title Controller.\n * @author Yufei Zhang\n */\ncontract Controller {\n    /*--------------------------------------------------------------------------\n     * Define all of the structures we are going to store in block chain.\n     *--------------------------------------------------------------------------\n     */\n    struct Account {\n        address cartId;          // an address point to a shopping cart\n        address prodCartId;      // an address point to puppies a user sopports\n        address[] transactions;  // a list of Transaction\n        uint balance;\n    }\n        \n    struct Cart {\n        address[] puppies;       // a list of items that are going to check out\n    }\n        \n    struct Product {\n        address[] puppies;       // a list of items that are uploaded by a user\n    }\n        \n    struct Puppy {\n        address sellerId;        // the id of the seller\n        string name;             // name of the puppy\n        string breed;            // breed of the puppy\n        uint age;                // age of the puppy\n        string birthPlace;       // birth place of the puppy\n        uint256 price;           // price of the puppy\n        string image;            // image url of the puppy\n        bool onSale;             // status of a Puppy\n    }\n        \n    struct Transaction {\n        address[] puppiesIds;    // id of multiple puppies\n        address seller;          // address of the seller\n        address buyer;           // address of the buyer\n        uint256 price;           // total price in the trade\n    }\n        \n    /*--------------------------------------------------------------------------\n     * Define all of the mappings that we are going to use\n     *--------------------------------------------------------------------------\n     */\n    mapping (address => Account) accountsOnBC;\n    mapping (address => Cart) cartsOnBC;\n    mapping (address => Product) productsOnBC;\n    mapping (address => Puppy) puppiesOnBC;\n    mapping (address => Transaction) transactionsOnBC;\n    address[] allPuppies;\n        \n    /*--------------------------------------------------------------------------\n     * Define functions to set and get infomation of an Account.\n     *--------------------------------------------------------------------------\n     */\n    function setAccount(\n        address _accountId,\n        address _cartId, \n        address _prodCartId, \n        uint256 _balance\n    ) \n        public \n    { \n        var account = accountsOnBC[_accountId];\n        account.cartId = _cartId;\n        account.prodCartId = _prodCartId;\n        account.balance = _balance;\n        setCart(_accountId, _cartId, new address[](0));\n        setProduct(_accountId, _prodCartId, new address[](0));\n    }\n       \n    function getAccount(address _accountId) \n        view \n        public \n        returns (\n            address[], \n            address[], \n            uint256\n        ) \n    {\n        address cId = accountsOnBC[_accountId].cartId;\n        address pId = accountsOnBC[_accountId].prodCartId;\n        return (\n            cartsOnBC[cId].puppies, \n            productsOnBC[pId].puppies,\n            accountsOnBC[_accountId].balance\n        );\n    } \n        \n    /*--------------------------------------------------------------------------\n     * Define functions to set and get infomation of a Cart.\n     *--------------------------------------------------------------------------\n     */\n    function setCart(\n        address _userId,\n        address _cartId,\n        address[] _puppiesIds\n    ) \n        public \n    {   \n        accountsOnBC[_userId].cartId = _cartId;\n        cartsOnBC[_cartId].puppies =  _puppiesIds;\n    }\n        \n    function getCart(address _cartId) view public returns (address[]) {\n        return (cartsOnBC[_cartId].puppies);\n    }\n        \n    /*--------------------------------------------------------------------------\n     * Define functions to set and get infomation of an product.\n     *--------------------------------------------------------------------------\n     */\n    function setProduct(\n        address _userId,\n        address _productId,\n        address[] _puppiesIds\n    ) \n        public \n    {\n        accountsOnBC[_userId].prodCartId = _productId;\n        productsOnBC[_productId].puppies =  _puppiesIds;\n    }\n    \n    function getProducts(address _productId) view public returns (address[]) {\n        return (productsOnBC[_productId].puppies);\n    }\n        \n    /*--------------------------------------------------------------------------\n     * Define functions to set and get infomation of a Puppy.\n     *--------------------------------------------------------------------------\n     */\n    function setPuppy(\n        address _puppyId,\n        address _sellerId,\n        string _name,\n        string _breed,\n        uint _age,\n        string _birthPlace,\n        uint256 _price,\n        string _image,\n        bool _onSale\n    ) \n        public \n    { \n        var puppy = puppiesOnBC[_puppyId];\n        puppy.sellerId = _sellerId;\n        puppy.name = _name;\n        puppy.breed = _breed;\n        puppy.age = _age;\n        puppy.birthPlace = _birthPlace;\n        puppy.price = _price;\n        puppy.image = _image;\n        puppy.onSale = _onSale;\n    }\n    \n    function getPuppyInfo(address _puppyId) \n        view \n        public \n        returns (\n            address,\n            string, \n            string, \n            uint,\n            string,\n            uint256,\n            string\n        ) \n    {\n        return (\n            puppiesOnBC[_puppyId].sellerId,\n            puppiesOnBC[_puppyId].name, \n            puppiesOnBC[_puppyId].breed, \n            puppiesOnBC[_puppyId].age,\n            puppiesOnBC[_puppyId].birthPlace,\n            puppiesOnBC[_puppyId].price,\n            puppiesOnBC[_puppyId].image\n        );\n    }\n    \n    function getPuppyStatus(address _puppyId) view public returns (bool) {\n        return (puppiesOnBC[_puppyId].onSale);\n    }\n     \n    /*--------------------------------------------------------------------------\n     * Define functions to set and get infomation of a Transaction.\n     *--------------------------------------------------------------------------\n     */\n    function setTransaction(\n        address _transId,\n        address[] _puppiesIds, \n        address _seller, \n        address _buyer, \n        uint256 _price\n    ) \n        public \n    { \n        var transaction = transactionsOnBC[_transId];\n        transaction.puppiesIds = _puppiesIds;\n        transaction.seller = _seller;\n        transaction.buyer = _buyer;\n        transaction.price = _price;\n    }\n       \n    function getTransaction(address _transId) \n        view \n        public \n        returns (\n            address[], \n            address, \n            address,\n            uint256\n        ) \n    {\n        return (\n            transactionsOnBC[_transId].puppiesIds, \n            transactionsOnBC[_transId].seller, \n            transactionsOnBC[_transId].buyer,\n            transactionsOnBC[_transId].price\n        );\n    }\n    \n    /*--------------------------------------------------------------------------\n     * Define othere functions that will be used in the block chain.\n     *--------------------------------------------------------------------------\n     */\n    function recharge(address _userId, uint256 _price) public {\n        accountsOnBC[_userId].balance = accountsOnBC[_userId].balance + _price;\n    }\n    \n    function checkOut(\n        // these will be store in a trasaction\n        address _transId,\n        address[] _puppiesIds,\n        address _seller,\n        address _buyer,\n        uint256 _price,\n        // these are helping to update cart and product\n        address _cartId,\n        address _prodCartId,\n        address[] _cart,\n        address[] _prodCart\n    ) \n        public\n    {\n        // update balance\n        accountsOnBC[_seller].balance = accountsOnBC[_seller].balance + _price;\n        accountsOnBC[_buyer].balance = accountsOnBC[_buyer].balance - _price;\n        // record transaction\n        setTransaction(_transId, _puppiesIds, _seller, _buyer, _price);\n        accountsOnBC[_seller].transactions.push(_transId);\n        accountsOnBC[_buyer].transactions.push(_transId);\n        // update cart and prodcart\n        setCart(_buyer, _cartId, _cart);\n        setProduct(_seller, _prodCartId, _prodCart);\n        // update Puppy Status will be done via JavaScript\n    }\n    \n    function addPuppy(\n        address _puppyId,\n        address _sellerId,\n        string _name,\n        string _breed,\n        uint _age,\n        string _birthPlace,\n        uint256 _price,\n        string _image\n    )\n        public \n    {\n        setPuppy(\n            _puppyId, \n            _sellerId,\n            _name, \n            _breed, \n            _age, \n            _birthPlace, \n            _price, \n            _image, \n            true\n        );\n        address prodCartId = accountsOnBC[_sellerId].prodCartId;\n        productsOnBC[prodCartId].puppies.push(_puppyId);\n        allPuppies.push(_puppyId);\n    }\n    \n    function markSoldPuppy(address _puppyId) public {\n        puppiesOnBC[_puppyId].onSale = false;\n    }\n    \n    function getPuppyList() view public returns (address[]) {\n        return (allPuppies);\n    }\n}",
  "sourcePath": "/Users/Yufei/Github/Decentralised-Shopping-Cart/PetShop/contracts/Controller.sol",
  "compiler": {
    "name": "solc",
    "version": "0.4.21+commit.dfe3193c.Emscripten.clang"
  },
  "schemaVersion": "2.0.0",
  "updatedAt": "2018-05-03T14:07:23.644Z"
}