{
  "contractName": "Controller",
  "abi": [
    {
      "constant": false,
      "inputs": [
        {
          "name": "_accountId",
          "type": "address"
        },
        {
          "name": "_cartId",
          "type": "address"
        },
        {
          "name": "_prodCartId",
          "type": "address"
        },
        {
          "name": "_balance",
          "type": "uint256"
        }
      ],
      "name": "setAccount",
      "outputs": [],
      "payable": false,
      "stateMutability": "nonpayable",
      "type": "function"
    },
    {
      "constant": true,
      "inputs": [
        {
          "name": "_accountId",
          "type": "address"
        }
      ],
      "name": "getAccount",
      "outputs": [
        {
          "name": "",
          "type": "address[]"
        },
        {
          "name": "",
          "type": "address[]"
        },
        {
          "name": "",
          "type": "uint256"
        }
      ],
      "payable": false,
      "stateMutability": "view",
      "type": "function"
    },
    {
      "constant": false,
      "inputs": [
        {
          "name": "_cartId",
          "type": "address"
        },
        {
          "name": "_puppiesIds",
          "type": "address[]"
        }
      ],
      "name": "setCart",
      "outputs": [],
      "payable": false,
      "stateMutability": "nonpayable",
      "type": "function"
    },
    {
      "constant": true,
      "inputs": [
        {
          "name": "_cartId",
          "type": "address"
        }
      ],
      "name": "getCart",
      "outputs": [
        {
          "name": "",
          "type": "address[]"
        }
      ],
      "payable": false,
      "stateMutability": "view",
      "type": "function"
    },
    {
      "constant": false,
      "inputs": [
        {
          "name": "_productId",
          "type": "address"
        },
        {
          "name": "_puppiesIds",
          "type": "address[]"
        }
      ],
      "name": "setProduct",
      "outputs": [],
      "payable": false,
      "stateMutability": "nonpayable",
      "type": "function"
    },
    {
      "constant": true,
      "inputs": [
        {
          "name": "_productId",
          "type": "address"
        }
      ],
      "name": "getProducts",
      "outputs": [
        {
          "name": "",
          "type": "address[]"
        }
      ],
      "payable": false,
      "stateMutability": "view",
      "type": "function"
    },
    {
      "constant": false,
      "inputs": [
        {
          "name": "_puppyId",
          "type": "address"
        },
        {
          "name": "_sellerId",
          "type": "address"
        },
        {
          "name": "_name",
          "type": "string"
        },
        {
          "name": "_breed",
          "type": "string"
        },
        {
          "name": "_age",
          "type": "uint256"
        },
        {
          "name": "_birthPlace",
          "type": "string"
        },
        {
          "name": "_price",
          "type": "uint256"
        },
        {
          "name": "_image",
          "type": "string"
        },
        {
          "name": "_onSale",
          "type": "bool"
        }
      ],
      "name": "setPuppy",
      "outputs": [],
      "payable": false,
      "stateMutability": "nonpayable",
      "type": "function"
    },
    {
      "constant": true,
      "inputs": [
        {
          "name": "_puppyId",
          "type": "address"
        }
      ],
      "name": "getPuppyInfo",
      "outputs": [
        {
          "name": "",
          "type": "address"
        },
        {
          "name": "",
          "type": "string"
        },
        {
          "name": "",
          "type": "string"
        },
        {
          "name": "",
          "type": "uint256"
        },
        {
          "name": "",
          "type": "string"
        },
        {
          "name": "",
          "type": "uint256"
        },
        {
          "name": "",
          "type": "string"
        }
      ],
      "payable": false,
      "stateMutability": "view",
      "type": "function"
    },
    {
      "constant": true,
      "inputs": [
        {
          "name": "_puppyId",
          "type": "address"
        }
      ],
      "name": "getPuppyStatus",
      "outputs": [
        {
          "name": "",
          "type": "bool"
        }
      ],
      "payable": false,
      "stateMutability": "view",
      "type": "function"
    },
    {
      "constant": false,
      "inputs": [
        {
          "name": "_transId",
          "type": "address"
        },
        {
          "name": "_puppiesIds",
          "type": "address[]"
        },
        {
          "name": "_seller",
          "type": "address"
        },
        {
          "name": "_buyer",
          "type": "address"
        },
        {
          "name": "_price",
          "type": "uint256"
        }
      ],
      "name": "setTransaction",
      "outputs": [],
      "payable": false,
      "stateMutability": "nonpayable",
      "type": "function"
    },
    {
      "constant": true,
      "inputs": [
        {
          "name": "_transId",
          "type": "address"
        }
      ],
      "name": "getTransaction",
      "outputs": [
        {
          "name": "",
          "type": "address[]"
        },
        {
          "name": "",
          "type": "address"
        },
        {
          "name": "",
          "type": "address"
        },
        {
          "name": "",
          "type": "uint256"
        }
      ],
      "payable": false,
      "stateMutability": "view",
      "type": "function"
    },
    {
      "constant": false,
      "inputs": [
        {
          "name": "_userId",
          "type": "address"
        },
        {
          "name": "_price",
          "type": "uint256"
        }
      ],
      "name": "recharge",
      "outputs": [],
      "payable": false,
      "stateMutability": "nonpayable",
      "type": "function"
    },
    {
      "constant": false,
      "inputs": [
        {
          "name": "_transId",
          "type": "address"
        },
        {
          "name": "_puppiesIds",
          "type": "address[]"
        },
        {
          "name": "_seller",
          "type": "address"
        },
        {
          "name": "_buyer",
          "type": "address"
        },
        {
          "name": "_price",
          "type": "uint256"
        },
        {
          "name": "_cartId",
          "type": "address"
        },
        {
          "name": "_prodCartId",
          "type": "address"
        },
        {
          "name": "_cart",
          "type": "address[]"
        },
        {
          "name": "_prodCart",
          "type": "address[]"
        }
      ],
      "name": "checkOut",
      "outputs": [],
      "payable": false,
      "stateMutability": "nonpayable",
      "type": "function"
    },
    {
      "constant": false,
      "inputs": [
        {
          "name": "_puppyId",
          "type": "address"
        },
        {
          "name": "_sellerId",
          "type": "address"
        },
        {
          "name": "_name",
          "type": "string"
        },
        {
          "name": "_breed",
          "type": "string"
        },
        {
          "name": "_age",
          "type": "uint256"
        },
        {
          "name": "_birthPlace",
          "type": "string"
        },
        {
          "name": "_price",
          "type": "uint256"
        },
        {
          "name": "_image",
          "type": "string"
        }
      ],
      "name": "addPuppy",
      "outputs": [],
      "payable": false,
      "stateMutability": "nonpayable",
      "type": "function"
    },
    {
      "constant": false,
      "inputs": [
        {
          "name": "_puppyId",
          "type": "address"
        }
      ],
      "name": "markSoldPuppy",
      "outputs": [],
      "payable": false,
      "stateMutability": "nonpayable",
      "type": "function"
    },
    {
      "constant": true,
      "inputs": [],
      "name": "getPuppyList",
      "outputs": [
        {
          "name": "",
          "type": "address[]"
        }
      ],
      "payable": false,
      "stateMutability": "view",
      "type": "function"
    }
  ],
  "bytecode": "0x6060604052341561000f57600080fd5b6125bc8061001e6000396000f3006060604052600436106100e6576000357c0100000000000000000000000000000000000000000000000000000000900463ffffffff1680630aa31aaa146100eb57806314dc13fa14610164578063160b76ae146101b55780631691473c1461022e5780631d67831f146102bc578063236996c9146104f357806336351c7c1461066957806352e33fb5146106ab57806362bf129c146107395780637bb86379146107a35780637f2ee8111461089e578063bdf2f6f714610a1f578063d8a895a014610adf578063f68482d714610b18578063fb79297e14610b98578063fbcbc0f114610d16575b600080fd5b34156100f657600080fd5b610162600480803573ffffffffffffffffffffffffffffffffffffffff1690602001909190803590602001908201803590602001908080602002602001604051908101604052809392919081815260200183836020028082843782019150505050505091905050610df3565b005b341561016f57600080fd5b61019b600480803573ffffffffffffffffffffffffffffffffffffffff16906020019091905050610e4e565b604051808215151515815260200191505060405180910390f35b34156101c057600080fd5b61022c600480803573ffffffffffffffffffffffffffffffffffffffff1690602001909190803590602001908201803590602001908080602002602001604051908101604052809392919081815260200183836020028082843782019150505050505091905050610ea7565b005b341561023957600080fd5b610265600480803573ffffffffffffffffffffffffffffffffffffffff16906020019091905050610f02565b6040518080602001828103825283818151815260200191508051906020019060200280838360005b838110156102a857808201518184015260208101905061028d565b505050509050019250505060405180910390f35b34156102c757600080fd5b6102f3600480803573ffffffffffffffffffffffffffffffffffffffff16906020019091905050610fd8565b604051808873ffffffffffffffffffffffffffffffffffffffff1673ffffffffffffffffffffffffffffffffffffffff1681526020018060200180602001878152602001806020018681526020018060200185810385528b818151815260200191508051906020019080838360005b8381101561037d578082015181840152602081019050610362565b50505050905090810190601f1680156103aa5780820380516001836020036101000a031916815260200191505b5085810384528a818151815260200191508051906020019080838360005b838110156103e35780820151818401526020810190506103c8565b50505050905090810190601f1680156104105780820380516001836020036101000a031916815260200191505b50858103835288818151815260200191508051906020019080838360005b8381101561044957808201518184015260208101905061042e565b50505050905090810190601f1680156104765780820380516001836020036101000a031916815260200191505b50858103825286818151815260200191508051906020019080838360005b838110156104af578082015181840152602081019050610494565b50505050905090810190601f1680156104dc5780820380516001836020036101000a031916815260200191505b509b50505050505050505050505060405180910390f35b34156104fe57600080fd5b610667600480803573ffffffffffffffffffffffffffffffffffffffff1690602001909190803573ffffffffffffffffffffffffffffffffffffffff1690602001909190803590602001908201803590602001908080601f0160208091040260200160405190810160405280939291908181526020018383808284378201915050505050509190803590602001908201803590602001908080601f0160208091040260200160405190810160405280939291908181526020018383808284378201915050505050509190803590602001909190803590602001908201803590602001908080601f0160208091040260200160405190810160405280939291908181526020018383808284378201915050505050509190803590602001909190803590602001908201803590602001908080601f01602080910402602001604051908101604052809392919081815260200183838082843782019150505050505091905050611478565b005b341561067457600080fd5b6106a9600480803573ffffffffffffffffffffffffffffffffffffffff16906020019091908035906020019091905050611601565b005b34156106b657600080fd5b6106e2600480803573ffffffffffffffffffffffffffffffffffffffff1690602001909190505061168e565b6040518080602001828103825283818151815260200191508051906020019060200280838360005b8381101561072557808201518184015260208101905061070a565b505050509050019250505060405180910390f35b341561074457600080fd5b61074c611764565b6040518080602001828103825283818151815260200191508051906020019060200280838360005b8381101561078f578082015181840152602081019050610774565b505050509050019250505060405180910390f35b34156107ae57600080fd5b6107da600480803573ffffffffffffffffffffffffffffffffffffffff169060200190919050506117f8565b60405180806020018573ffffffffffffffffffffffffffffffffffffffff1673ffffffffffffffffffffffffffffffffffffffff1681526020018473ffffffffffffffffffffffffffffffffffffffff1673ffffffffffffffffffffffffffffffffffffffff168152602001838152602001828103825286818151815260200191508051906020019060200280838360005b8381101561088757808201518184015260208101905061086c565b505050509050019550505050505060405180910390f35b34156108a957600080fd5b610a1d600480803573ffffffffffffffffffffffffffffffffffffffff1690602001909190803573ffffffffffffffffffffffffffffffffffffffff1690602001909190803590602001908201803590602001908080601f0160208091040260200160405190810160405280939291908181526020018383808284378201915050505050509190803590602001908201803590602001908080601f0160208091040260200160405190810160405280939291908181526020018383808284378201915050505050509190803590602001909190803590602001908201803590602001908080601f0160208091040260200160405190810160405280939291908181526020018383808284378201915050505050509190803590602001909190803590602001908201803590602001908080601f0160208091040260200160405190810160405280939291908181526020018383808284378201915050505050509190803515159060200190919050506119e7565b005b3415610a2a57600080fd5b610add600480803573ffffffffffffffffffffffffffffffffffffffff169060200190919080359060200190820180359060200190808060200260200160405190810160405280939291908181526020018383602002808284378201915050505050509190803573ffffffffffffffffffffffffffffffffffffffff1690602001909190803573ffffffffffffffffffffffffffffffffffffffff16906020019091908035906020019091905050611b0b565b005b3415610aea57600080fd5b610b16600480803573ffffffffffffffffffffffffffffffffffffffff16906020019091905050611bfe565b005b3415610b2357600080fd5b610b96600480803573ffffffffffffffffffffffffffffffffffffffff1690602001909190803573ffffffffffffffffffffffffffffffffffffffff1690602001909190803573ffffffffffffffffffffffffffffffffffffffff16906020019091908035906020019091905050611c5c565b005b3415610ba357600080fd5b610d14600480803573ffffffffffffffffffffffffffffffffffffffff169060200190919080359060200190820180359060200190808060200260200160405190810160405280939291908181526020018383602002808284378201915050505050509190803573ffffffffffffffffffffffffffffffffffffffff1690602001909190803573ffffffffffffffffffffffffffffffffffffffff1690602001909190803590602001909190803573ffffffffffffffffffffffffffffffffffffffff1690602001909190803573ffffffffffffffffffffffffffffffffffffffff169060200190919080359060200190820180359060200190808060200260200160405190810160405280939291908181526020018383602002808284378201915050505050509190803590602001908201803590602001908080602002602001604051908101604052809392919081815260200183836020028082843782019150505050505091905050611d86565b005b3415610d2157600080fd5b610d4d600480803573ffffffffffffffffffffffffffffffffffffffff16906020019091905050612108565b604051808060200180602001848152602001838103835286818151815260200191508051906020019060200280838360005b83811015610d9a578082015181840152602081019050610d7f565b50505050905001838103825285818151815260200191508051906020019060200280838360005b83811015610ddc578082015181840152602081019050610dc1565b505050509050019550505050505060405180910390f35b80600160008473ffffffffffffffffffffffffffffffffffffffff1673ffffffffffffffffffffffffffffffffffffffff1681526020019081526020016000206000019080519060200190610e499291906123ca565b505050565b6000600360008373ffffffffffffffffffffffffffffffffffffffff1673ffffffffffffffffffffffffffffffffffffffff16815260200190815260200160002060070160009054906101000a900460ff169050919050565b80600260008473ffffffffffffffffffffffffffffffffffffffff1673ffffffffffffffffffffffffffffffffffffffff1681526020019081526020016000206000019080519060200190610efd9291906123ca565b505050565b610f0a612454565b600260008373ffffffffffffffffffffffffffffffffffffffff1673ffffffffffffffffffffffffffffffffffffffff168152602001908152602001600020600001805480602002602001604051908101604052809291908181526020018280548015610fcc57602002820191906000526020600020905b8160009054906101000a900473ffffffffffffffffffffffffffffffffffffffff1673ffffffffffffffffffffffffffffffffffffffff1681526020019060010190808311610f82575b50505050509050919050565b6000610fe2612468565b610fea612468565b6000610ff4612468565b6000610ffe612468565b600360008973ffffffffffffffffffffffffffffffffffffffff1673ffffffffffffffffffffffffffffffffffffffff16815260200190815260200160002060000160009054906101000a900473ffffffffffffffffffffffffffffffffffffffff16600360008a73ffffffffffffffffffffffffffffffffffffffff1673ffffffffffffffffffffffffffffffffffffffff168152602001908152602001600020600101600360008b73ffffffffffffffffffffffffffffffffffffffff1673ffffffffffffffffffffffffffffffffffffffff168152602001908152602001600020600201600360008c73ffffffffffffffffffffffffffffffffffffffff1673ffffffffffffffffffffffffffffffffffffffff16815260200190815260200160002060030154600360008d73ffffffffffffffffffffffffffffffffffffffff1673ffffffffffffffffffffffffffffffffffffffff168152602001908152602001600020600401600360008e73ffffffffffffffffffffffffffffffffffffffff1673ffffffffffffffffffffffffffffffffffffffff16815260200190815260200160002060050154600360008f73ffffffffffffffffffffffffffffffffffffffff1673ffffffffffffffffffffffffffffffffffffffff168152602001908152602001600020600601858054600181600116156101000203166002900480601f0160208091040260200160405190810160405280929190818152602001828054600181600116156101000203166002900480156112845780601f1061125957610100808354040283529160200191611284565b820191906000526020600020905b81548152906001019060200180831161126757829003601f168201915b50505050509550848054600181600116156101000203166002900480601f0160208091040260200160405190810160405280929190818152602001828054600181600116156101000203166002900480156113205780601f106112f557610100808354040283529160200191611320565b820191906000526020600020905b81548152906001019060200180831161130357829003601f168201915b50505050509450828054600181600116156101000203166002900480601f0160208091040260200160405190810160405280929190818152602001828054600181600116156101000203166002900480156113bc5780601f10611391576101008083540402835291602001916113bc565b820191906000526020600020905b81548152906001019060200180831161139f57829003601f168201915b50505050509250808054600181600116156101000203166002900480601f0160208091040260200160405190810160405280929190818152602001828054600181600116156101000203166002900480156114585780601f1061142d57610100808354040283529160200191611458565b820191906000526020600020905b81548152906001019060200180831161143b57829003601f168201915b505050505090509650965096509650965096509650919395979092949650565b600061148c898989898989898960016119e7565b6000808973ffffffffffffffffffffffffffffffffffffffff1673ffffffffffffffffffffffffffffffffffffffff16815260200190815260200160002060010160009054906101000a900473ffffffffffffffffffffffffffffffffffffffff169050600260008273ffffffffffffffffffffffffffffffffffffffff1673ffffffffffffffffffffffffffffffffffffffff1681526020019081526020016000206000018054806001018281611544919061247c565b916000526020600020900160008b909190916101000a81548173ffffffffffffffffffffffffffffffffffffffff021916908373ffffffffffffffffffffffffffffffffffffffff16021790555050600580548060010182816115a7919061247c565b916000526020600020900160008b909190916101000a81548173ffffffffffffffffffffffffffffffffffffffff021916908373ffffffffffffffffffffffffffffffffffffffff16021790555050505050505050505050565b806000808473ffffffffffffffffffffffffffffffffffffffff1673ffffffffffffffffffffffffffffffffffffffff16815260200190815260200160002060030154016000808473ffffffffffffffffffffffffffffffffffffffff1673ffffffffffffffffffffffffffffffffffffffff168152602001908152602001600020600301819055505050565b611696612454565b600160008373ffffffffffffffffffffffffffffffffffffffff1673ffffffffffffffffffffffffffffffffffffffff16815260200190815260200160002060000180548060200260200160405190810160405280929190818152602001828054801561175857602002820191906000526020600020905b8160009054906101000a900473ffffffffffffffffffffffffffffffffffffffff1673ffffffffffffffffffffffffffffffffffffffff168152602001906001019080831161170e575b50505050509050919050565b61176c612454565b60058054806020026020016040519081016040528092919081815260200182805480156117ee57602002820191906000526020600020905b8160009054906101000a900473ffffffffffffffffffffffffffffffffffffffff1673ffffffffffffffffffffffffffffffffffffffff16815260200190600101908083116117a4575b5050505050905090565b611800612454565b6000806000600460008673ffffffffffffffffffffffffffffffffffffffff1673ffffffffffffffffffffffffffffffffffffffff168152602001908152602001600020600001600460008773ffffffffffffffffffffffffffffffffffffffff1673ffffffffffffffffffffffffffffffffffffffff16815260200190815260200160002060010160009054906101000a900473ffffffffffffffffffffffffffffffffffffffff16600460008873ffffffffffffffffffffffffffffffffffffffff1673ffffffffffffffffffffffffffffffffffffffff16815260200190815260200160002060020160009054906101000a900473ffffffffffffffffffffffffffffffffffffffff16600460008973ffffffffffffffffffffffffffffffffffffffff1673ffffffffffffffffffffffffffffffffffffffff16815260200190815260200160002060030154838054806020026020016040519081016040528092919081815260200182805480156119d157602002820191906000526020600020905b8160009054906101000a900473ffffffffffffffffffffffffffffffffffffffff1673ffffffffffffffffffffffffffffffffffffffff1681526020019060010190808311611987575b5050505050935093509350935093509193509193565b6000600360008b73ffffffffffffffffffffffffffffffffffffffff1673ffffffffffffffffffffffffffffffffffffffff1681526020019081526020016000209050888160000160006101000a81548173ffffffffffffffffffffffffffffffffffffffff021916908373ffffffffffffffffffffffffffffffffffffffff16021790555087816001019080519060200190611a859291906124a8565b5086816002019080519060200190611a9e9291906124a8565b5085816003018190555084816004019080519060200190611ac09291906124a8565b5083816005018190555082816006019080519060200190611ae29291906124a8565b50818160070160006101000a81548160ff02191690831515021790555050505050505050505050565b6000600460008773ffffffffffffffffffffffffffffffffffffffff1673ffffffffffffffffffffffffffffffffffffffff168152602001908152602001600020905084816000019080519060200190611b669291906123ca565b50838160010160006101000a81548173ffffffffffffffffffffffffffffffffffffffff021916908373ffffffffffffffffffffffffffffffffffffffff160217905550828160020160006101000a81548173ffffffffffffffffffffffffffffffffffffffff021916908373ffffffffffffffffffffffffffffffffffffffff160217905550818160030181905550505050505050565b6000600360008373ffffffffffffffffffffffffffffffffffffffff1673ffffffffffffffffffffffffffffffffffffffff16815260200190815260200160002060070160006101000a81548160ff02191690831515021790555050565b60008060008673ffffffffffffffffffffffffffffffffffffffff1673ffffffffffffffffffffffffffffffffffffffff1681526020019081526020016000209050838160000160006101000a81548173ffffffffffffffffffffffffffffffffffffffff021916908373ffffffffffffffffffffffffffffffffffffffff160217905550828160010160006101000a81548173ffffffffffffffffffffffffffffffffffffffff021916908373ffffffffffffffffffffffffffffffffffffffff160217905550818160030181905550611d56846000604051805910611d405750595b9080825280602002602001820160405250610df3565b611d7f836000604051805910611d695750595b9080825280602002602001820160405250610ea7565b5050505050565b846000808973ffffffffffffffffffffffffffffffffffffffff1673ffffffffffffffffffffffffffffffffffffffff16815260200190815260200160002060030154016000808973ffffffffffffffffffffffffffffffffffffffff1673ffffffffffffffffffffffffffffffffffffffff16815260200190815260200160002060030181905550846000808873ffffffffffffffffffffffffffffffffffffffff1673ffffffffffffffffffffffffffffffffffffffff16815260200190815260200160002060030154036000808873ffffffffffffffffffffffffffffffffffffffff1673ffffffffffffffffffffffffffffffffffffffff16815260200190815260200160002060030181905550611ea58989898989611b0b565b6000808873ffffffffffffffffffffffffffffffffffffffff1673ffffffffffffffffffffffffffffffffffffffff1681526020019081526020016000206002018054806001018281611ef8919061247c565b916000526020600020900160008b909190916101000a81548173ffffffffffffffffffffffffffffffffffffffff021916908373ffffffffffffffffffffffffffffffffffffffff160217905550506000808773ffffffffffffffffffffffffffffffffffffffff1673ffffffffffffffffffffffffffffffffffffffff1681526020019081526020016000206002018054806001018281611f9a919061247c565b916000526020600020900160008b909190916101000a81548173ffffffffffffffffffffffffffffffffffffffff021916908373ffffffffffffffffffffffffffffffffffffffff16021790555050836000808873ffffffffffffffffffffffffffffffffffffffff1673ffffffffffffffffffffffffffffffffffffffff16815260200190815260200160002060000160006101000a81548173ffffffffffffffffffffffffffffffffffffffff021916908373ffffffffffffffffffffffffffffffffffffffff1602179055506120738483610df3565b826000808973ffffffffffffffffffffffffffffffffffffffff1673ffffffffffffffffffffffffffffffffffffffff16815260200190815260200160002060010160006101000a81548173ffffffffffffffffffffffffffffffffffffffff021916908373ffffffffffffffffffffffffffffffffffffffff1602179055506120fd8382610ea7565b505050505050505050565b612110612454565b612118612454565b60008060008060008773ffffffffffffffffffffffffffffffffffffffff1673ffffffffffffffffffffffffffffffffffffffff16815260200190815260200160002060000160009054906101000a900473ffffffffffffffffffffffffffffffffffffffff1691506000808773ffffffffffffffffffffffffffffffffffffffff1673ffffffffffffffffffffffffffffffffffffffff16815260200190815260200160002060010160009054906101000a900473ffffffffffffffffffffffffffffffffffffffff169050600160008373ffffffffffffffffffffffffffffffffffffffff1673ffffffffffffffffffffffffffffffffffffffff168152602001908152602001600020600001600260008373ffffffffffffffffffffffffffffffffffffffff1673ffffffffffffffffffffffffffffffffffffffff1681526020019081526020016000206000016000808973ffffffffffffffffffffffffffffffffffffffff1673ffffffffffffffffffffffffffffffffffffffff168152602001908152602001600020600301548280548060200260200160405190810160405280929190818152602001828054801561232c57602002820191906000526020600020905b8160009054906101000a900473ffffffffffffffffffffffffffffffffffffffff1673ffffffffffffffffffffffffffffffffffffffff16815260200190600101908083116122e2575b50505050509250818054806020026020016040519081016040528092919081815260200182805480156123b457602002820191906000526020600020905b8160009054906101000a900473ffffffffffffffffffffffffffffffffffffffff1673ffffffffffffffffffffffffffffffffffffffff168152602001906001019080831161236a575b5050505050915094509450945050509193909250565b828054828255906000526020600020908101928215612443579160200282015b828111156124425782518260006101000a81548173ffffffffffffffffffffffffffffffffffffffff021916908373ffffffffffffffffffffffffffffffffffffffff160217905550916020019190600101906123ea565b5b5090506124509190612528565b5090565b602060405190810160405280600081525090565b602060405190810160405280600081525090565b8154818355818115116124a3578183600052602060002091820191016124a2919061256b565b5b505050565b828054600181600116156101000203166002900490600052602060002090601f016020900481019282601f106124e957805160ff1916838001178555612517565b82800160010185558215612517579182015b828111156125165782518255916020019190600101906124fb565b5b509050612524919061256b565b5090565b61256891905b8082111561256457600081816101000a81549073ffffffffffffffffffffffffffffffffffffffff02191690555060010161252e565b5090565b90565b61258d91905b80821115612589576000816000905550600101612571565b5090565b905600a165627a7a723058206f1e1d5c2f7f2b69ce39e7b1bd49261e606a2863c4a36d1f5346919190ddf5990029",
  "source": "pragma solidity ^0.4.21;\n    \n/**\n * @title Controller.\n * @author Yufei Zhang\n */\ncontract Controller {\n    /*--------------------------------------------------------------------------\n     * Define all of the structures we are going to store in block chain.\n     *--------------------------------------------------------------------------\n     */\n    struct Account {\n        address cartId;          // an address point to a shopping cart\n        address prodCartId;      // an address point to puppies a user sopports\n        address[] transactions;  // a list of Transaction\n        uint balance;\n    }\n        \n    struct Cart {\n        address[] puppies;       // a list of items that are going to check out\n    }\n        \n    struct Product {\n        address[] puppies;       // a list of items that are uploaded by a user\n    }\n        \n    struct Puppy {\n        address sellerId;        // the id of the seller\n        string name;             // name of the puppy\n        string breed;            // breed of the puppy\n        uint age;                // age of the puppy\n        string birthPlace;       // birth place of the puppy\n        uint256 price;           // price of the puppy\n        string image;            // image url of the puppy\n        bool onSale;             // status of a Puppy\n    }\n        \n    struct Transaction {\n        address[] puppiesIds;    // id of multiple puppies\n        address seller;          // address of the seller\n        address buyer;           // address of the buyer\n        uint256 price;           // total price in the trade\n    }\n        \n    /*--------------------------------------------------------------------------\n     * Define all of the mappings that we are going to use\n     *--------------------------------------------------------------------------\n     */\n    mapping (address => Account) accountsOnBC;\n    mapping (address => Cart) cartsOnBC;\n    mapping (address => Product) productsOnBC;\n    mapping (address => Puppy) puppiesOnBC;\n    mapping (address => Transaction) transactionsOnBC;\n    address[] allPuppies;\n        \n    /*--------------------------------------------------------------------------\n     * Define functions to set and get infomation of an Account.\n     *--------------------------------------------------------------------------\n     */\n    function setAccount(\n        address _accountId,\n        address _cartId, \n        address _prodCartId, \n        uint256 _balance\n    ) \n        public \n    { \n        var account = accountsOnBC[_accountId];\n        account.cartId = _cartId;\n        account.prodCartId = _prodCartId;\n        account.balance = _balance;\n        setCart(_cartId, new address[](0));\n        setProduct(_prodCartId, new address[](0));\n    }\n       \n    function getAccount(address _accountId) \n        view \n        public \n        returns (\n            address[], \n            address[], \n            uint256\n        ) \n    {\n        address cId = accountsOnBC[_accountId].cartId;\n        address pId = accountsOnBC[_accountId].prodCartId;\n        return (\n            cartsOnBC[cId].puppies, \n            productsOnBC[pId].puppies,\n            accountsOnBC[_accountId].balance\n        );\n    } \n        \n    /*--------------------------------------------------------------------------\n     * Define functions to set and get infomation of a Cart.\n     *--------------------------------------------------------------------------\n     */\n    function setCart(address _cartId, address[] _puppiesIds) public {\n        cartsOnBC[_cartId].puppies =  _puppiesIds;\n    }\n        \n    function getCart(address _cartId) view public returns (address[]) {\n        return (cartsOnBC[_cartId].puppies);\n    }\n        \n    /*--------------------------------------------------------------------------\n     * Define functions to set and get infomation of an product.\n     *--------------------------------------------------------------------------\n     */\n    function setProduct(address _productId, address[] _puppiesIds) public {\n        productsOnBC[_productId].puppies =  _puppiesIds;\n    }\n    \n    function getProducts(address _productId) view public returns (address[]) {\n        return (productsOnBC[_productId].puppies);\n    }\n        \n    /*--------------------------------------------------------------------------\n     * Define functions to set and get infomation of a Puppy.\n     *--------------------------------------------------------------------------\n     */\n    function setPuppy(\n        address _puppyId,\n        address _sellerId,\n        string _name,\n        string _breed,\n        uint _age,\n        string _birthPlace,\n        uint256 _price,\n        string _image,\n        bool _onSale\n    ) \n        public \n    { \n        var puppy = puppiesOnBC[_puppyId];\n        puppy.sellerId = _sellerId;\n        puppy.name = _name;\n        puppy.breed = _breed;\n        puppy.age = _age;\n        puppy.birthPlace = _birthPlace;\n        puppy.price = _price;\n        puppy.image = _image;\n        puppy.onSale = _onSale;\n    }\n    \n    function getPuppyInfo(address _puppyId) \n        view \n        public \n        returns (\n            address,\n            string, \n            string, \n            uint,\n            string,\n            uint256,\n            string\n        ) \n    {\n        return (\n            puppiesOnBC[_puppyId].sellerId,\n            puppiesOnBC[_puppyId].name, \n            puppiesOnBC[_puppyId].breed, \n            puppiesOnBC[_puppyId].age,\n            puppiesOnBC[_puppyId].birthPlace,\n            puppiesOnBC[_puppyId].price,\n            puppiesOnBC[_puppyId].image\n        );\n    }\n    \n    function getPuppyStatus(address _puppyId) view public returns (bool) {\n        return (puppiesOnBC[_puppyId].onSale);\n    }\n     \n    /*--------------------------------------------------------------------------\n     * Define functions to set and get infomation of a Transaction.\n     *--------------------------------------------------------------------------\n     */\n    function setTransaction(\n        address _transId,\n        address[] _puppiesIds, \n        address _seller, \n        address _buyer, \n        uint256 _price\n    ) \n        public \n    { \n        var transaction = transactionsOnBC[_transId];\n        transaction.puppiesIds = _puppiesIds;\n        transaction.seller = _seller;\n        transaction.buyer = _buyer;\n        transaction.price = _price;\n    }\n       \n    function getTransaction(address _transId) \n        view \n        public \n        returns (\n            address[], \n            address, \n            address,\n            uint256\n        ) \n    {\n        return (\n            transactionsOnBC[_transId].puppiesIds, \n            transactionsOnBC[_transId].seller, \n            transactionsOnBC[_transId].buyer,\n            transactionsOnBC[_transId].price\n        );\n    }\n    \n    /*--------------------------------------------------------------------------\n     * Define othere functions that will be used in the block chain.\n     *--------------------------------------------------------------------------\n     */\n    function recharge(address _userId, uint256 _price) public {\n        accountsOnBC[_userId].balance = accountsOnBC[_userId].balance + _price;\n    }\n    \n    function checkOut(\n        // these will be store in a trasaction\n        address _transId,\n        address[] _puppiesIds,\n        address _seller,\n        address _buyer,\n        uint256 _price,\n        // these are helping to update cart and product\n        address _cartId,\n        address _prodCartId,\n        address[] _cart,\n        address[] _prodCart\n    ) \n        public\n    {\n        // update balance\n        accountsOnBC[_seller].balance = accountsOnBC[_seller].balance + _price;\n        accountsOnBC[_buyer].balance = accountsOnBC[_buyer].balance - _price;\n        // record transaction\n        setTransaction(_transId, _puppiesIds, _seller, _buyer, _price);\n        accountsOnBC[_seller].transactions.push(_transId);\n        accountsOnBC[_buyer].transactions.push(_transId);\n        // update cart and prodcart\n        accountsOnBC[_buyer].cartId = _cartId;\n        setCart(_cartId, _cart);\n        accountsOnBC[_seller].prodCartId = _prodCartId;\n        setProduct(_prodCartId, _prodCart);\n        // update Puppy Status will be done via JavaScript\n    }\n    \n    function addPuppy(\n        address _puppyId,\n        address _sellerId,\n        string _name,\n        string _breed,\n        uint _age,\n        string _birthPlace,\n        uint256 _price,\n        string _image\n    )\n        public \n    {\n        setPuppy(\n            _puppyId, \n            _sellerId,\n            _name, \n            _breed, \n            _age, \n            _birthPlace, \n            _price, \n            _image, \n            true\n        );\n        address prodCartId = accountsOnBC[_sellerId].prodCartId;\n        productsOnBC[prodCartId].puppies.push(_puppyId);\n        allPuppies.push(_puppyId);\n    }\n    \n    function markSoldPuppy(address _puppyId) public {\n        puppiesOnBC[_puppyId].onSale = false;\n    }\n    \n    function getPuppyList() view public returns (address[]) {\n        return (allPuppies);\n    }\n}\n",
  "sourcePath": "/Users/Yufei/Github/Decentralised-Shopping-Cart/PetShop/contracts/Controller.sol",
  "compiler": {
    "name": "solc",
    "version": "0.4.21+commit.dfe3193c.Emscripten.clang"
  },
  "schemaVersion": "2.0.0",
  "updatedAt": "2018-05-01T12:50:39.807Z"
}