{
  "contractName": "Controller",
  "abi": [
    {
      "constant": false,
      "inputs": [
        {
          "name": "_accountId",
          "type": "address"
        },
        {
          "name": "_cartId",
          "type": "address"
        },
        {
          "name": "_prodCartId",
          "type": "address"
        },
        {
          "name": "_balance",
          "type": "uint256"
        }
      ],
      "name": "setAccount",
      "outputs": [],
      "payable": false,
      "stateMutability": "nonpayable",
      "type": "function"
    },
    {
      "constant": true,
      "inputs": [
        {
          "name": "_accountId",
          "type": "address"
        }
      ],
      "name": "getAccount",
      "outputs": [
        {
          "name": "",
          "type": "address[]"
        },
        {
          "name": "",
          "type": "address[]"
        },
        {
          "name": "",
          "type": "uint256"
        }
      ],
      "payable": false,
      "stateMutability": "view",
      "type": "function"
    },
    {
      "constant": false,
      "inputs": [
        {
          "name": "_cartId",
          "type": "address"
        },
        {
          "name": "_puppiesIds",
          "type": "address[]"
        }
      ],
      "name": "setCart",
      "outputs": [],
      "payable": false,
      "stateMutability": "nonpayable",
      "type": "function"
    },
    {
      "constant": true,
      "inputs": [
        {
          "name": "_cartId",
          "type": "address"
        }
      ],
      "name": "getCart",
      "outputs": [
        {
          "name": "",
          "type": "address[]"
        }
      ],
      "payable": false,
      "stateMutability": "view",
      "type": "function"
    },
    {
      "constant": false,
      "inputs": [
        {
          "name": "_productId",
          "type": "address"
        },
        {
          "name": "_puppiesIds",
          "type": "address[]"
        }
      ],
      "name": "setProduct",
      "outputs": [],
      "payable": false,
      "stateMutability": "nonpayable",
      "type": "function"
    },
    {
      "constant": true,
      "inputs": [
        {
          "name": "_productId",
          "type": "address"
        }
      ],
      "name": "getProducts",
      "outputs": [
        {
          "name": "",
          "type": "address[]"
        }
      ],
      "payable": false,
      "stateMutability": "view",
      "type": "function"
    },
    {
      "constant": false,
      "inputs": [
        {
          "name": "_puppyId",
          "type": "address"
        },
        {
          "name": "_name",
          "type": "string"
        },
        {
          "name": "_breed",
          "type": "string"
        },
        {
          "name": "_age",
          "type": "uint256"
        },
        {
          "name": "_birthPlace",
          "type": "string"
        },
        {
          "name": "_price",
          "type": "uint256"
        },
        {
          "name": "_image",
          "type": "string"
        },
        {
          "name": "_onSale",
          "type": "bool"
        }
      ],
      "name": "setPuppy",
      "outputs": [],
      "payable": false,
      "stateMutability": "nonpayable",
      "type": "function"
    },
    {
      "constant": true,
      "inputs": [
        {
          "name": "_puppyId",
          "type": "address"
        }
      ],
      "name": "getPuppy",
      "outputs": [
        {
          "name": "",
          "type": "string"
        },
        {
          "name": "",
          "type": "string"
        },
        {
          "name": "",
          "type": "uint256"
        },
        {
          "name": "",
          "type": "string"
        },
        {
          "name": "",
          "type": "uint256"
        },
        {
          "name": "",
          "type": "string"
        },
        {
          "name": "",
          "type": "bool"
        }
      ],
      "payable": false,
      "stateMutability": "view",
      "type": "function"
    },
    {
      "constant": false,
      "inputs": [
        {
          "name": "_transId",
          "type": "address"
        },
        {
          "name": "_puppiesIds",
          "type": "address[]"
        },
        {
          "name": "_seller",
          "type": "address"
        },
        {
          "name": "_buyer",
          "type": "address"
        },
        {
          "name": "_price",
          "type": "uint256"
        }
      ],
      "name": "setTransaction",
      "outputs": [],
      "payable": false,
      "stateMutability": "nonpayable",
      "type": "function"
    },
    {
      "constant": true,
      "inputs": [
        {
          "name": "_transId",
          "type": "address"
        }
      ],
      "name": "getTransaction",
      "outputs": [
        {
          "name": "",
          "type": "address[]"
        },
        {
          "name": "",
          "type": "address"
        },
        {
          "name": "",
          "type": "address"
        },
        {
          "name": "",
          "type": "uint256"
        }
      ],
      "payable": false,
      "stateMutability": "view",
      "type": "function"
    },
    {
      "constant": false,
      "inputs": [
        {
          "name": "_userId",
          "type": "address"
        },
        {
          "name": "_price",
          "type": "uint256"
        }
      ],
      "name": "recharge",
      "outputs": [],
      "payable": false,
      "stateMutability": "nonpayable",
      "type": "function"
    },
    {
      "constant": false,
      "inputs": [
        {
          "name": "_transId",
          "type": "address"
        },
        {
          "name": "_puppiesIds",
          "type": "address[]"
        },
        {
          "name": "_seller",
          "type": "address"
        },
        {
          "name": "_buyer",
          "type": "address"
        },
        {
          "name": "_price",
          "type": "uint256"
        },
        {
          "name": "_cartId",
          "type": "address"
        },
        {
          "name": "_prodCartId",
          "type": "address"
        },
        {
          "name": "_cart",
          "type": "address[]"
        },
        {
          "name": "_prodCart",
          "type": "address[]"
        }
      ],
      "name": "checkOut",
      "outputs": [],
      "payable": false,
      "stateMutability": "nonpayable",
      "type": "function"
    },
    {
      "constant": false,
      "inputs": [
        {
          "name": "_sellerId",
          "type": "address"
        },
        {
          "name": "_puppyId",
          "type": "address"
        },
        {
          "name": "_name",
          "type": "string"
        },
        {
          "name": "_breed",
          "type": "string"
        },
        {
          "name": "_age",
          "type": "uint256"
        },
        {
          "name": "_birthPlace",
          "type": "string"
        },
        {
          "name": "_price",
          "type": "uint256"
        },
        {
          "name": "_image",
          "type": "string"
        }
      ],
      "name": "addPuppy",
      "outputs": [],
      "payable": false,
      "stateMutability": "nonpayable",
      "type": "function"
    },
    {
      "constant": false,
      "inputs": [
        {
          "name": "_puppyId",
          "type": "address"
        }
      ],
      "name": "markSoldPuppy",
      "outputs": [],
      "payable": false,
      "stateMutability": "nonpayable",
      "type": "function"
    },
    {
      "constant": true,
      "inputs": [],
      "name": "getPuppyList",
      "outputs": [
        {
          "name": "",
          "type": "address[]"
        }
      ],
      "payable": false,
      "stateMutability": "view",
      "type": "function"
    }
  ],
  "bytecode": "0x6060604052341561000f57600080fd5b6124688061001e6000396000f3006060604052600436106100db576000357c0100000000000000000000000000000000000000000000000000000000900463ffffffff1680630aa31aaa146100e0578063160b76ae146101595780631691473c146101d2578063236996c91461026057806336351c7c146103d6578063416945111461041857806352e33fb51461062757806362bf129c146106b55780637bb863791461071f578063bdf2f6f71461081a578063d8a895a0146108da578063e6895f1f14610913578063f68482d714610a75578063fb79297e14610af5578063fbcbc0f114610c73575b600080fd5b34156100eb57600080fd5b610157600480803573ffffffffffffffffffffffffffffffffffffffff1690602001909190803590602001908201803590602001908080602002602001604051908101604052809392919081815260200183836020028082843782019150505050505091905050610d50565b005b341561016457600080fd5b6101d0600480803573ffffffffffffffffffffffffffffffffffffffff1690602001909190803590602001908201803590602001908080602002602001604051908101604052809392919081815260200183836020028082843782019150505050505091905050610dab565b005b34156101dd57600080fd5b610209600480803573ffffffffffffffffffffffffffffffffffffffff16906020019091905050610e06565b6040518080602001828103825283818151815260200191508051906020019060200280838360005b8381101561024c578082015181840152602081019050610231565b505050509050019250505060405180910390f35b341561026b57600080fd5b6103d4600480803573ffffffffffffffffffffffffffffffffffffffff1690602001909190803573ffffffffffffffffffffffffffffffffffffffff1690602001909190803590602001908201803590602001908080601f0160208091040260200160405190810160405280939291908181526020018383808284378201915050505050509190803590602001908201803590602001908080601f0160208091040260200160405190810160405280939291908181526020018383808284378201915050505050509190803590602001909190803590602001908201803590602001908080601f0160208091040260200160405190810160405280939291908181526020018383808284378201915050505050509190803590602001909190803590602001908201803590602001908080601f01602080910402602001604051908101604052809392919081815260200183838082843782019150505050505091905050610edc565b005b34156103e157600080fd5b610416600480803573ffffffffffffffffffffffffffffffffffffffff16906020019091908035906020019091905050611064565b005b341561042357600080fd5b61044f600480803573ffffffffffffffffffffffffffffffffffffffff169060200190919050506110f1565b60405180806020018060200188815260200180602001878152602001806020018615151515815260200185810385528c818151815260200191508051906020019080838360005b838110156104b1578082015181840152602081019050610496565b50505050905090810190601f1680156104de5780820380516001836020036101000a031916815260200191505b5085810384528b818151815260200191508051906020019080838360005b838110156105175780820151818401526020810190506104fc565b50505050905090810190601f1680156105445780820380516001836020036101000a031916815260200191505b50858103835289818151815260200191508051906020019080838360005b8381101561057d578082015181840152602081019050610562565b50505050905090810190601f1680156105aa5780820380516001836020036101000a031916815260200191505b50858103825287818151815260200191508051906020019080838360005b838110156105e35780820151818401526020810190506105c8565b50505050905090810190601f1680156106105780820380516001836020036101000a031916815260200191505b509b50505050505050505050505060405180910390f35b341561063257600080fd5b61065e600480803573ffffffffffffffffffffffffffffffffffffffff1690602001909190505061157e565b6040518080602001828103825283818151815260200191508051906020019060200280838360005b838110156106a1578082015181840152602081019050610686565b505050509050019250505060405180910390f35b34156106c057600080fd5b6106c8611654565b6040518080602001828103825283818151815260200191508051906020019060200280838360005b8381101561070b5780820151818401526020810190506106f0565b505050509050019250505060405180910390f35b341561072a57600080fd5b610756600480803573ffffffffffffffffffffffffffffffffffffffff169060200190919050506116e8565b60405180806020018573ffffffffffffffffffffffffffffffffffffffff1673ffffffffffffffffffffffffffffffffffffffff1681526020018473ffffffffffffffffffffffffffffffffffffffff1673ffffffffffffffffffffffffffffffffffffffff168152602001838152602001828103825286818151815260200191508051906020019060200280838360005b838110156108035780820151818401526020810190506107e8565b505050509050019550505050505060405180910390f35b341561082557600080fd5b6108d8600480803573ffffffffffffffffffffffffffffffffffffffff169060200190919080359060200190820180359060200190808060200260200160405190810160405280939291908181526020018383602002808284378201915050505050509190803573ffffffffffffffffffffffffffffffffffffffff1690602001909190803573ffffffffffffffffffffffffffffffffffffffff169060200190919080359060200190919050506118d7565b005b34156108e557600080fd5b610911600480803573ffffffffffffffffffffffffffffffffffffffff169060200190919050506119ca565b005b341561091e57600080fd5b610a73600480803573ffffffffffffffffffffffffffffffffffffffff1690602001909190803590602001908201803590602001908080601f0160208091040260200160405190810160405280939291908181526020018383808284378201915050505050509190803590602001908201803590602001908080601f0160208091040260200160405190810160405280939291908181526020018383808284378201915050505050509190803590602001909190803590602001908201803590602001908080601f0160208091040260200160405190810160405280939291908181526020018383808284378201915050505050509190803590602001909190803590602001908201803590602001908080601f016020809104026020016040519081016040528093929190818152602001838380828437820191505050505050919080351515906020019091905050611a28565b005b3415610a8057600080fd5b610af3600480803573ffffffffffffffffffffffffffffffffffffffff1690602001909190803573ffffffffffffffffffffffffffffffffffffffff1690602001909190803573ffffffffffffffffffffffffffffffffffffffff16906020019091908035906020019091905050611b08565b005b3415610b0057600080fd5b610c71600480803573ffffffffffffffffffffffffffffffffffffffff169060200190919080359060200190820180359060200190808060200260200160405190810160405280939291908181526020018383602002808284378201915050505050509190803573ffffffffffffffffffffffffffffffffffffffff1690602001909190803573ffffffffffffffffffffffffffffffffffffffff1690602001909190803590602001909190803573ffffffffffffffffffffffffffffffffffffffff1690602001909190803573ffffffffffffffffffffffffffffffffffffffff169060200190919080359060200190820180359060200190808060200260200160405190810160405280939291908181526020018383602002808284378201915050505050509190803590602001908201803590602001908080602002602001604051908101604052809392919081815260200183836020028082843782019150505050505091905050611c32565b005b3415610c7e57600080fd5b610caa600480803573ffffffffffffffffffffffffffffffffffffffff16906020019091905050611fb4565b604051808060200180602001848152602001838103835286818151815260200191508051906020019060200280838360005b83811015610cf7578082015181840152602081019050610cdc565b50505050905001838103825285818151815260200191508051906020019060200280838360005b83811015610d39578082015181840152602081019050610d1e565b505050509050019550505050505060405180910390f35b80600160008473ffffffffffffffffffffffffffffffffffffffff1673ffffffffffffffffffffffffffffffffffffffff1681526020019081526020016000206000019080519060200190610da6929190612276565b505050565b80600260008473ffffffffffffffffffffffffffffffffffffffff1673ffffffffffffffffffffffffffffffffffffffff1681526020019081526020016000206000019080519060200190610e01929190612276565b505050565b610e0e612300565b600260008373ffffffffffffffffffffffffffffffffffffffff1673ffffffffffffffffffffffffffffffffffffffff168152602001908152602001600020600001805480602002602001604051908101604052809291908181526020018280548015610ed057602002820191906000526020600020905b8160009054906101000a900473ffffffffffffffffffffffffffffffffffffffff1673ffffffffffffffffffffffffffffffffffffffff1681526020019060010190808311610e86575b50505050509050919050565b6000610eef888888888888886001611a28565b6000808a73ffffffffffffffffffffffffffffffffffffffff1673ffffffffffffffffffffffffffffffffffffffff16815260200190815260200160002060010160009054906101000a900473ffffffffffffffffffffffffffffffffffffffff169050600260008273ffffffffffffffffffffffffffffffffffffffff1673ffffffffffffffffffffffffffffffffffffffff1681526020019081526020016000206000018054806001018281610fa79190612314565b916000526020600020900160008a909190916101000a81548173ffffffffffffffffffffffffffffffffffffffff021916908373ffffffffffffffffffffffffffffffffffffffff160217905550506005805480600101828161100a9190612314565b916000526020600020900160008a909190916101000a81548173ffffffffffffffffffffffffffffffffffffffff021916908373ffffffffffffffffffffffffffffffffffffffff16021790555050505050505050505050565b806000808473ffffffffffffffffffffffffffffffffffffffff1673ffffffffffffffffffffffffffffffffffffffff16815260200190815260200160002060030154016000808473ffffffffffffffffffffffffffffffffffffffff1673ffffffffffffffffffffffffffffffffffffffff168152602001908152602001600020600301819055505050565b6110f9612340565b611101612340565b600061110b612340565b6000611115612340565b6000600360008973ffffffffffffffffffffffffffffffffffffffff1673ffffffffffffffffffffffffffffffffffffffff168152602001908152602001600020600001600360008a73ffffffffffffffffffffffffffffffffffffffff1673ffffffffffffffffffffffffffffffffffffffff168152602001908152602001600020600101600360008b73ffffffffffffffffffffffffffffffffffffffff1673ffffffffffffffffffffffffffffffffffffffff16815260200190815260200160002060020154600360008c73ffffffffffffffffffffffffffffffffffffffff1673ffffffffffffffffffffffffffffffffffffffff168152602001908152602001600020600301600360008d73ffffffffffffffffffffffffffffffffffffffff1673ffffffffffffffffffffffffffffffffffffffff16815260200190815260200160002060040154600360008e73ffffffffffffffffffffffffffffffffffffffff1673ffffffffffffffffffffffffffffffffffffffff168152602001908152602001600020600501600360008f73ffffffffffffffffffffffffffffffffffffffff1673ffffffffffffffffffffffffffffffffffffffff16815260200190815260200160002060060160009054906101000a900460ff16868054600181600116156101000203166002900480601f01602080910402602001604051908101604052809291908181526020018280546001816001161561010002031660029004801561138a5780601f1061135f5761010080835404028352916020019161138a565b820191906000526020600020905b81548152906001019060200180831161136d57829003601f168201915b50505050509650858054600181600116156101000203166002900480601f0160208091040260200160405190810160405280929190818152602001828054600181600116156101000203166002900480156114265780601f106113fb57610100808354040283529160200191611426565b820191906000526020600020905b81548152906001019060200180831161140957829003601f168201915b50505050509550838054600181600116156101000203166002900480601f0160208091040260200160405190810160405280929190818152602001828054600181600116156101000203166002900480156114c25780601f10611497576101008083540402835291602001916114c2565b820191906000526020600020905b8154815290600101906020018083116114a557829003601f168201915b50505050509350818054600181600116156101000203166002900480601f01602080910402602001604051908101604052809291908181526020018280546001816001161561010002031660029004801561155e5780601f106115335761010080835404028352916020019161155e565b820191906000526020600020905b81548152906001019060200180831161154157829003601f168201915b505050505091509650965096509650965096509650919395979092949650565b611586612300565b600160008373ffffffffffffffffffffffffffffffffffffffff1673ffffffffffffffffffffffffffffffffffffffff16815260200190815260200160002060000180548060200260200160405190810160405280929190818152602001828054801561164857602002820191906000526020600020905b8160009054906101000a900473ffffffffffffffffffffffffffffffffffffffff1673ffffffffffffffffffffffffffffffffffffffff16815260200190600101908083116115fe575b50505050509050919050565b61165c612300565b60058054806020026020016040519081016040528092919081815260200182805480156116de57602002820191906000526020600020905b8160009054906101000a900473ffffffffffffffffffffffffffffffffffffffff1673ffffffffffffffffffffffffffffffffffffffff1681526020019060010190808311611694575b5050505050905090565b6116f0612300565b6000806000600460008673ffffffffffffffffffffffffffffffffffffffff1673ffffffffffffffffffffffffffffffffffffffff168152602001908152602001600020600001600460008773ffffffffffffffffffffffffffffffffffffffff1673ffffffffffffffffffffffffffffffffffffffff16815260200190815260200160002060010160009054906101000a900473ffffffffffffffffffffffffffffffffffffffff16600460008873ffffffffffffffffffffffffffffffffffffffff1673ffffffffffffffffffffffffffffffffffffffff16815260200190815260200160002060020160009054906101000a900473ffffffffffffffffffffffffffffffffffffffff16600460008973ffffffffffffffffffffffffffffffffffffffff1673ffffffffffffffffffffffffffffffffffffffff16815260200190815260200160002060030154838054806020026020016040519081016040528092919081815260200182805480156118c157602002820191906000526020600020905b8160009054906101000a900473ffffffffffffffffffffffffffffffffffffffff1673ffffffffffffffffffffffffffffffffffffffff1681526020019060010190808311611877575b5050505050935093509350935093509193509193565b6000600460008773ffffffffffffffffffffffffffffffffffffffff1673ffffffffffffffffffffffffffffffffffffffff168152602001908152602001600020905084816000019080519060200190611932929190612276565b50838160010160006101000a81548173ffffffffffffffffffffffffffffffffffffffff021916908373ffffffffffffffffffffffffffffffffffffffff160217905550828160020160006101000a81548173ffffffffffffffffffffffffffffffffffffffff021916908373ffffffffffffffffffffffffffffffffffffffff160217905550818160030181905550505050505050565b6000600360008373ffffffffffffffffffffffffffffffffffffffff1673ffffffffffffffffffffffffffffffffffffffff16815260200190815260200160002060060160006101000a81548160ff02191690831515021790555050565b6000600360008a73ffffffffffffffffffffffffffffffffffffffff1673ffffffffffffffffffffffffffffffffffffffff168152602001908152602001600020905087816000019080519060200190611a83929190612354565b5086816001019080519060200190611a9c929190612354565b5085816002018190555084816003019080519060200190611abe929190612354565b5083816004018190555082816005019080519060200190611ae0929190612354565b50818160060160006101000a81548160ff021916908315150217905550505050505050505050565b60008060008673ffffffffffffffffffffffffffffffffffffffff1673ffffffffffffffffffffffffffffffffffffffff1681526020019081526020016000209050838160000160006101000a81548173ffffffffffffffffffffffffffffffffffffffff021916908373ffffffffffffffffffffffffffffffffffffffff160217905550828160010160006101000a81548173ffffffffffffffffffffffffffffffffffffffff021916908373ffffffffffffffffffffffffffffffffffffffff160217905550818160030181905550611c02846000604051805910611bec5750595b9080825280602002602001820160405250610d50565b611c2b836000604051805910611c155750595b9080825280602002602001820160405250610dab565b5050505050565b846000808973ffffffffffffffffffffffffffffffffffffffff1673ffffffffffffffffffffffffffffffffffffffff16815260200190815260200160002060030154016000808973ffffffffffffffffffffffffffffffffffffffff1673ffffffffffffffffffffffffffffffffffffffff16815260200190815260200160002060030181905550846000808873ffffffffffffffffffffffffffffffffffffffff1673ffffffffffffffffffffffffffffffffffffffff16815260200190815260200160002060030154036000808873ffffffffffffffffffffffffffffffffffffffff1673ffffffffffffffffffffffffffffffffffffffff16815260200190815260200160002060030181905550611d5189898989896118d7565b6000808873ffffffffffffffffffffffffffffffffffffffff1673ffffffffffffffffffffffffffffffffffffffff1681526020019081526020016000206002018054806001018281611da49190612314565b916000526020600020900160008b909190916101000a81548173ffffffffffffffffffffffffffffffffffffffff021916908373ffffffffffffffffffffffffffffffffffffffff160217905550506000808773ffffffffffffffffffffffffffffffffffffffff1673ffffffffffffffffffffffffffffffffffffffff1681526020019081526020016000206002018054806001018281611e469190612314565b916000526020600020900160008b909190916101000a81548173ffffffffffffffffffffffffffffffffffffffff021916908373ffffffffffffffffffffffffffffffffffffffff16021790555050836000808873ffffffffffffffffffffffffffffffffffffffff1673ffffffffffffffffffffffffffffffffffffffff16815260200190815260200160002060000160006101000a81548173ffffffffffffffffffffffffffffffffffffffff021916908373ffffffffffffffffffffffffffffffffffffffff160217905550611f1f8483610d50565b826000808973ffffffffffffffffffffffffffffffffffffffff1673ffffffffffffffffffffffffffffffffffffffff16815260200190815260200160002060010160006101000a81548173ffffffffffffffffffffffffffffffffffffffff021916908373ffffffffffffffffffffffffffffffffffffffff160217905550611fa98382610dab565b505050505050505050565b611fbc612300565b611fc4612300565b60008060008060008773ffffffffffffffffffffffffffffffffffffffff1673ffffffffffffffffffffffffffffffffffffffff16815260200190815260200160002060000160009054906101000a900473ffffffffffffffffffffffffffffffffffffffff1691506000808773ffffffffffffffffffffffffffffffffffffffff1673ffffffffffffffffffffffffffffffffffffffff16815260200190815260200160002060010160009054906101000a900473ffffffffffffffffffffffffffffffffffffffff169050600160008373ffffffffffffffffffffffffffffffffffffffff1673ffffffffffffffffffffffffffffffffffffffff168152602001908152602001600020600001600260008373ffffffffffffffffffffffffffffffffffffffff1673ffffffffffffffffffffffffffffffffffffffff1681526020019081526020016000206000016000808973ffffffffffffffffffffffffffffffffffffffff1673ffffffffffffffffffffffffffffffffffffffff16815260200190815260200160002060030154828054806020026020016040519081016040528092919081815260200182805480156121d857602002820191906000526020600020905b8160009054906101000a900473ffffffffffffffffffffffffffffffffffffffff1673ffffffffffffffffffffffffffffffffffffffff168152602001906001019080831161218e575b505050505092508180548060200260200160405190810160405280929190818152602001828054801561226057602002820191906000526020600020905b8160009054906101000a900473ffffffffffffffffffffffffffffffffffffffff1673ffffffffffffffffffffffffffffffffffffffff1681526020019060010190808311612216575b5050505050915094509450945050509193909250565b8280548282559060005260206000209081019282156122ef579160200282015b828111156122ee5782518260006101000a81548173ffffffffffffffffffffffffffffffffffffffff021916908373ffffffffffffffffffffffffffffffffffffffff16021790555091602001919060010190612296565b5b5090506122fc91906123d4565b5090565b602060405190810160405280600081525090565b81548183558181151161233b5781836000526020600020918201910161233a9190612417565b5b505050565b602060405190810160405280600081525090565b828054600181600116156101000203166002900490600052602060002090601f016020900481019282601f1061239557805160ff19168380011785556123c3565b828001600101855582156123c3579182015b828111156123c25782518255916020019190600101906123a7565b5b5090506123d09190612417565b5090565b61241491905b8082111561241057600081816101000a81549073ffffffffffffffffffffffffffffffffffffffff0219169055506001016123da565b5090565b90565b61243991905b8082111561243557600081600090555060010161241d565b5090565b905600a165627a7a723058206c3e5f24cd0740f723d33513d3ed29e38da798540e21508034711d16851406820029",
  "source": "pragma solidity ^0.4.21;\n    \n/**\n * @title Controller.\n * @author Yufei Zhang\n */\ncontract Controller {\n    /*--------------------------------------------------------------------------\n     * Define all of the structures we are going to store in block chain.\n     *--------------------------------------------------------------------------\n     */\n    struct Account {\n        address cartId;          // an address point to a shopping cart\n        address prodCartId;      // an address point to puppies a user sopports\n        address[] transactions;  // a list of Transaction\n        uint balance;\n    }\n        \n    struct Cart {\n        address[] puppies;       // a list of items that are going to check out\n    }\n        \n    struct Product {\n        address[] puppies;       // a list of items that are uploaded by a user\n    }\n        \n    struct Puppy {\n        string name;             // name of the puppy\n        string breed;            // breed of the puppy\n        uint age;                // age of the puppy\n        string birthPlace;       // birth place of the puppy\n        uint256 price;           // price of the puppy\n        string image;            // image url of the puppy\n        bool onSale;             // status of a puppy\n    }\n        \n    struct Transaction {\n        address[] puppiesIds;    // id of multiple puppies\n        address seller;          // address of the seller\n        address buyer;           // address of the buyer\n        uint256 price;           // total price in the trade\n    }\n        \n    /*--------------------------------------------------------------------------\n     * Define all of the mappings that we are going to use\n     *--------------------------------------------------------------------------\n     */\n    mapping (address => Account) accountsOnBC;\n    mapping (address => Cart) cartsOnBC;\n    mapping (address => Product) productsOnBC;\n    mapping (address => Puppy) puppiesOnBC;\n    mapping (address => Transaction) transactionsOnBC;\n    address[] allPuppies;\n        \n    /*--------------------------------------------------------------------------\n     * Define functions to set and get infomation of an Account.\n     *--------------------------------------------------------------------------\n     */\n    function setAccount(\n        address _accountId,\n        address _cartId, \n        address _prodCartId, \n        uint256 _balance\n    ) \n        public \n    { \n        var account = accountsOnBC[_accountId];\n        account.cartId = _cartId;\n        account.prodCartId = _prodCartId;\n        account.balance = _balance;\n        setCart(_cartId, new address[](0));\n        setProduct(_prodCartId, new address[](0));\n    }\n       \n    function getAccount(address _accountId) \n        view \n        public \n        returns (\n            address[], \n            address[], \n            uint256\n        ) \n    {\n        address cId = accountsOnBC[_accountId].cartId;\n        address pId = accountsOnBC[_accountId].prodCartId;\n        return (\n            cartsOnBC[cId].puppies, \n            productsOnBC[pId].puppies,\n            accountsOnBC[_accountId].balance\n        );\n    } \n        \n    /*--------------------------------------------------------------------------\n     * Define functions to set and get infomation of a Cart.\n     *--------------------------------------------------------------------------\n     */\n    function setCart(address _cartId, address[] _puppiesIds) public {\n        cartsOnBC[_cartId].puppies =  _puppiesIds;\n    }\n        \n    function getCart(address _cartId) view public returns (address[]) {\n        return (cartsOnBC[_cartId].puppies);\n    }\n        \n    /*--------------------------------------------------------------------------\n     * Define functions to set and get infomation of an product.\n     *--------------------------------------------------------------------------\n     */\n    function setProduct(address _productId, address[] _puppiesIds) public {\n        productsOnBC[_productId].puppies =  _puppiesIds;\n    }\n    \n    function getProducts(address _productId) view public returns (address[]) {\n        return (productsOnBC[_productId].puppies);\n    }\n        \n    /*--------------------------------------------------------------------------\n     * Define functions to set and get infomation of a Puppy.\n     *--------------------------------------------------------------------------\n     */\n    function setPuppy(\n        address _puppyId,\n        string _name,\n        string _breed,\n        uint _age,\n        string _birthPlace,\n        uint256 _price,\n        string _image,\n        bool _onSale\n    ) \n        public \n    { \n        var puppy = puppiesOnBC[_puppyId];\n        puppy.name = _name;\n        puppy.breed = _breed;\n        puppy.age = _age;\n        puppy.birthPlace = _birthPlace;\n        puppy.price = _price;\n        puppy.image = _image;\n        puppy.onSale = _onSale;\n    }\n    \n    function getPuppy(address _puppyId) \n        view \n        public \n        returns (\n            string, \n            string, \n            uint,\n            string,\n            uint256,\n            string,\n            bool\n        ) \n    {\n        return (\n            puppiesOnBC[_puppyId].name, \n            puppiesOnBC[_puppyId].breed, \n            puppiesOnBC[_puppyId].age,\n            puppiesOnBC[_puppyId].birthPlace,\n            puppiesOnBC[_puppyId].price,\n            puppiesOnBC[_puppyId].image,\n            puppiesOnBC[_puppyId].onSale\n        );\n    }\n     \n    /*--------------------------------------------------------------------------\n     * Define functions to set and get infomation of a Transaction.\n     *--------------------------------------------------------------------------\n     */\n    function setTransaction(\n        address _transId,\n        address[] _puppiesIds, \n        address _seller, \n        address _buyer, \n        uint256 _price\n    ) \n        public \n    { \n        var transaction = transactionsOnBC[_transId];\n        transaction.puppiesIds = _puppiesIds;\n        transaction.seller = _seller;\n        transaction.buyer = _buyer;\n        transaction.price = _price;\n    }\n       \n    function getTransaction(address _transId) \n        view \n        public \n        returns (\n            address[], \n            address, \n            address,\n            uint256\n        ) \n    {\n        return (\n            transactionsOnBC[_transId].puppiesIds, \n            transactionsOnBC[_transId].seller, \n            transactionsOnBC[_transId].buyer,\n            transactionsOnBC[_transId].price\n        );\n    }\n    \n    /*--------------------------------------------------------------------------\n     * Define othere functions that will be used in the block chain.\n     *--------------------------------------------------------------------------\n     */\n    function recharge(address _userId, uint256 _price) public {\n        accountsOnBC[_userId].balance = accountsOnBC[_userId].balance + _price;\n    }\n    \n    function checkOut(\n        // these will be store in a trasaction\n        address _transId,\n        address[] _puppiesIds,\n        address _seller,\n        address _buyer,\n        uint256 _price,\n        // these are helping to update cart and product\n        address _cartId,\n        address _prodCartId,\n        address[] _cart,\n        address[] _prodCart\n    ) \n        public\n    {\n        // update balance\n        accountsOnBC[_seller].balance = accountsOnBC[_seller].balance + _price;\n        accountsOnBC[_buyer].balance = accountsOnBC[_buyer].balance - _price;\n        // record transaction\n        setTransaction(_transId, _puppiesIds, _seller, _buyer, _price);\n        accountsOnBC[_seller].transactions.push(_transId);\n        accountsOnBC[_buyer].transactions.push(_transId);\n        // update cart and prodcart\n        accountsOnBC[_buyer].cartId = _cartId;\n        setCart(_cartId, _cart);\n        accountsOnBC[_seller].prodCartId = _prodCartId;\n        setProduct(_prodCartId, _prodCart);\n        // update Puppy Status will be done via JavaScript\n    }\n    \n    function addPuppy(\n        address _sellerId,\n        address _puppyId,\n        string _name,\n        string _breed,\n        uint _age,\n        string _birthPlace,\n        uint256 _price,\n        string _image\n    )\n        public \n    {\n        setPuppy(\n            _puppyId, \n            _name, \n            _breed, \n            _age, \n            _birthPlace, \n            _price, \n            _image, \n            true\n        );\n        address prodCartId = accountsOnBC[_sellerId].prodCartId;\n        productsOnBC[prodCartId].puppies.push(_puppyId);\n        allPuppies.push(_puppyId);\n    }\n    \n    function markSoldPuppy(address _puppyId) public {\n        puppiesOnBC[_puppyId].onSale = false;\n    }\n    \n    function getPuppyList() view public returns (address[]) {\n        return (allPuppies);\n    }\n}",
  "sourcePath": "/Users/Yufei/Github/Decentralised-Shopping-Cart/PetShop/contracts/Controller.sol",
  "compiler": {
    "name": "solc",
    "version": "0.4.21+commit.dfe3193c.Emscripten.clang"
  },
  "schemaVersion": "2.0.0",
  "updatedAt": "2018-04-30T04:05:57.761Z"
}