{
  "contractName": "Controller",
  "abi": [
    {
      "constant": false,
      "inputs": [
        {
          "name": "_accountId",
          "type": "address"
        },
        {
          "name": "_cartId",
          "type": "address"
        },
        {
          "name": "_prodCartId",
          "type": "address"
        },
        {
          "name": "_balance",
          "type": "uint256"
        }
      ],
      "name": "setAccount",
      "outputs": [],
      "payable": false,
      "stateMutability": "nonpayable",
      "type": "function"
    },
    {
      "constant": true,
      "inputs": [
        {
          "name": "_accountId",
          "type": "address"
        }
      ],
      "name": "getAccount",
      "outputs": [
        {
          "name": "",
          "type": "address[]"
        },
        {
          "name": "",
          "type": "address[]"
        },
        {
          "name": "",
          "type": "uint256"
        },
        {
          "name": "",
          "type": "address[]"
        }
      ],
      "payable": false,
      "stateMutability": "view",
      "type": "function"
    },
    {
      "constant": false,
      "inputs": [
        {
          "name": "_userId",
          "type": "address"
        },
        {
          "name": "_cartId",
          "type": "address"
        },
        {
          "name": "_puppiesIds",
          "type": "address[]"
        }
      ],
      "name": "setCart",
      "outputs": [],
      "payable": false,
      "stateMutability": "nonpayable",
      "type": "function"
    },
    {
      "constant": true,
      "inputs": [
        {
          "name": "_cartId",
          "type": "address"
        }
      ],
      "name": "getCart",
      "outputs": [
        {
          "name": "",
          "type": "address[]"
        }
      ],
      "payable": false,
      "stateMutability": "view",
      "type": "function"
    },
    {
      "constant": false,
      "inputs": [
        {
          "name": "_userId",
          "type": "address"
        },
        {
          "name": "_productId",
          "type": "address"
        },
        {
          "name": "_puppiesIds",
          "type": "address[]"
        }
      ],
      "name": "setProduct",
      "outputs": [],
      "payable": false,
      "stateMutability": "nonpayable",
      "type": "function"
    },
    {
      "constant": true,
      "inputs": [
        {
          "name": "_productId",
          "type": "address"
        }
      ],
      "name": "getProducts",
      "outputs": [
        {
          "name": "",
          "type": "address[]"
        }
      ],
      "payable": false,
      "stateMutability": "view",
      "type": "function"
    },
    {
      "constant": false,
      "inputs": [
        {
          "name": "_puppyId",
          "type": "address"
        },
        {
          "name": "_sellerId",
          "type": "address"
        },
        {
          "name": "_name",
          "type": "string"
        },
        {
          "name": "_breed",
          "type": "string"
        },
        {
          "name": "_age",
          "type": "uint256"
        },
        {
          "name": "_birthPlace",
          "type": "string"
        },
        {
          "name": "_price",
          "type": "uint256"
        },
        {
          "name": "_image",
          "type": "string"
        },
        {
          "name": "_onSale",
          "type": "bool"
        }
      ],
      "name": "setPuppy",
      "outputs": [],
      "payable": false,
      "stateMutability": "nonpayable",
      "type": "function"
    },
    {
      "constant": true,
      "inputs": [
        {
          "name": "_puppyId",
          "type": "address"
        }
      ],
      "name": "getPuppyInfo",
      "outputs": [
        {
          "name": "",
          "type": "address"
        },
        {
          "name": "",
          "type": "string"
        },
        {
          "name": "",
          "type": "string"
        },
        {
          "name": "",
          "type": "uint256"
        },
        {
          "name": "",
          "type": "string"
        },
        {
          "name": "",
          "type": "uint256"
        },
        {
          "name": "",
          "type": "string"
        }
      ],
      "payable": false,
      "stateMutability": "view",
      "type": "function"
    },
    {
      "constant": true,
      "inputs": [
        {
          "name": "_puppyId",
          "type": "address"
        }
      ],
      "name": "getPuppyStatus",
      "outputs": [
        {
          "name": "",
          "type": "bool"
        }
      ],
      "payable": false,
      "stateMutability": "view",
      "type": "function"
    },
    {
      "constant": false,
      "inputs": [
        {
          "name": "_transId",
          "type": "address"
        },
        {
          "name": "_puppiesIds",
          "type": "address[]"
        },
        {
          "name": "_seller",
          "type": "address"
        },
        {
          "name": "_buyer",
          "type": "address"
        },
        {
          "name": "_price",
          "type": "uint256"
        },
        {
          "name": "_now",
          "type": "string"
        }
      ],
      "name": "setTransaction",
      "outputs": [],
      "payable": false,
      "stateMutability": "nonpayable",
      "type": "function"
    },
    {
      "constant": true,
      "inputs": [
        {
          "name": "_transId",
          "type": "address"
        }
      ],
      "name": "getTransaction",
      "outputs": [
        {
          "name": "",
          "type": "address[]"
        },
        {
          "name": "",
          "type": "address"
        },
        {
          "name": "",
          "type": "address"
        },
        {
          "name": "",
          "type": "uint256"
        },
        {
          "name": "",
          "type": "string"
        }
      ],
      "payable": false,
      "stateMutability": "view",
      "type": "function"
    },
    {
      "constant": false,
      "inputs": [
        {
          "name": "_userId",
          "type": "address"
        },
        {
          "name": "_price",
          "type": "uint256"
        }
      ],
      "name": "recharge",
      "outputs": [],
      "payable": false,
      "stateMutability": "nonpayable",
      "type": "function"
    },
    {
      "constant": false,
      "inputs": [
        {
          "name": "_transId",
          "type": "address"
        },
        {
          "name": "_puppiesIds",
          "type": "address[]"
        },
        {
          "name": "_seller",
          "type": "address"
        },
        {
          "name": "_buyer",
          "type": "address"
        },
        {
          "name": "_price",
          "type": "uint256"
        },
        {
          "name": "_cartId",
          "type": "address"
        },
        {
          "name": "_prodCartId",
          "type": "address"
        },
        {
          "name": "_cart",
          "type": "address[]"
        },
        {
          "name": "_prodCart",
          "type": "address[]"
        },
        {
          "name": "_now",
          "type": "string"
        }
      ],
      "name": "checkOut",
      "outputs": [],
      "payable": false,
      "stateMutability": "nonpayable",
      "type": "function"
    },
    {
      "constant": false,
      "inputs": [
        {
          "name": "_puppyId",
          "type": "address"
        },
        {
          "name": "_sellerId",
          "type": "address"
        },
        {
          "name": "_name",
          "type": "string"
        },
        {
          "name": "_breed",
          "type": "string"
        },
        {
          "name": "_age",
          "type": "uint256"
        },
        {
          "name": "_birthPlace",
          "type": "string"
        },
        {
          "name": "_price",
          "type": "uint256"
        },
        {
          "name": "_image",
          "type": "string"
        }
      ],
      "name": "addPuppy",
      "outputs": [],
      "payable": false,
      "stateMutability": "nonpayable",
      "type": "function"
    },
    {
      "constant": false,
      "inputs": [
        {
          "name": "_puppyId",
          "type": "address"
        }
      ],
      "name": "markSoldPuppy",
      "outputs": [],
      "payable": false,
      "stateMutability": "nonpayable",
      "type": "function"
    },
    {
      "constant": true,
      "inputs": [],
      "name": "getPuppyList",
      "outputs": [
        {
          "name": "",
          "type": "address[]"
        }
      ],
      "payable": false,
      "stateMutability": "view",
      "type": "function"
    }
  ],
  "bytecode": "0x6060604052341561000f57600080fd5b6129518061001e6000396000f3006060604052600436106100e6576000357c0100000000000000000000000000000000000000000000000000000000900463ffffffff16806314dc13fa146100eb5780631691473c1461013c5780631d67831f146101ca578063236996c91461040157806336351c7c1461057757806352e33fb5146105b957806362bf129c146106475780637bb86379146106b15780637f2ee81114610818578063843089a514610999578063a352dfcb14610b5a578063d8a895a014610bf2578063f68482d714610c2b578063f69c2ac314610cab578063fbcbc0f114610d43578063ff41f21c14610e68575b600080fd5b34156100f657600080fd5b610122600480803573ffffffffffffffffffffffffffffffffffffffff16906020019091905050610f6b565b604051808215151515815260200191505060405180910390f35b341561014757600080fd5b610173600480803573ffffffffffffffffffffffffffffffffffffffff16906020019091905050610fc4565b6040518080602001828103825283818151815260200191508051906020019060200280838360005b838110156101b657808201518184015260208101905061019b565b505050509050019250505060405180910390f35b34156101d557600080fd5b610201600480803573ffffffffffffffffffffffffffffffffffffffff1690602001909190505061109a565b604051808873ffffffffffffffffffffffffffffffffffffffff1673ffffffffffffffffffffffffffffffffffffffff1681526020018060200180602001878152602001806020018681526020018060200185810385528b818151815260200191508051906020019080838360005b8381101561028b578082015181840152602081019050610270565b50505050905090810190601f1680156102b85780820380516001836020036101000a031916815260200191505b5085810384528a818151815260200191508051906020019080838360005b838110156102f15780820151818401526020810190506102d6565b50505050905090810190601f16801561031e5780820380516001836020036101000a031916815260200191505b50858103835288818151815260200191508051906020019080838360005b8381101561035757808201518184015260208101905061033c565b50505050905090810190601f1680156103845780820380516001836020036101000a031916815260200191505b50858103825286818151815260200191508051906020019080838360005b838110156103bd5780820151818401526020810190506103a2565b50505050905090810190601f1680156103ea5780820380516001836020036101000a031916815260200191505b509b50505050505050505050505060405180910390f35b341561040c57600080fd5b610575600480803573ffffffffffffffffffffffffffffffffffffffff1690602001909190803573ffffffffffffffffffffffffffffffffffffffff1690602001909190803590602001908201803590602001908080601f0160208091040260200160405190810160405280939291908181526020018383808284378201915050505050509190803590602001908201803590602001908080601f0160208091040260200160405190810160405280939291908181526020018383808284378201915050505050509190803590602001909190803590602001908201803590602001908080601f0160208091040260200160405190810160405280939291908181526020018383808284378201915050505050509190803590602001909190803590602001908201803590602001908080601f0160208091040260200160405190810160405280939291908181526020018383808284378201915050505050509190505061153a565b005b341561058257600080fd5b6105b7600480803573ffffffffffffffffffffffffffffffffffffffff169060200190919080359060200190919050506116c3565b005b34156105c457600080fd5b6105f0600480803573ffffffffffffffffffffffffffffffffffffffff16906020019091905050611750565b6040518080602001828103825283818151815260200191508051906020019060200280838360005b83811015610633578082015181840152602081019050610618565b505050509050019250505060405180910390f35b341561065257600080fd5b61065a611826565b6040518080602001828103825283818151815260200191508051906020019060200280838360005b8381101561069d578082015181840152602081019050610682565b505050509050019250505060405180910390f35b34156106bc57600080fd5b6106e8600480803573ffffffffffffffffffffffffffffffffffffffff169060200190919050506118ba565b60405180806020018673ffffffffffffffffffffffffffffffffffffffff1673ffffffffffffffffffffffffffffffffffffffff1681526020018573ffffffffffffffffffffffffffffffffffffffff1673ffffffffffffffffffffffffffffffffffffffff16815260200184815260200180602001838103835288818151815260200191508051906020019060200280838360005b8381101561079957808201518184015260208101905061077e565b50505050905001838103825284818151815260200191508051906020019080838360005b838110156107d85780820151818401526020810190506107bd565b50505050905090810190601f1680156108055780820380516001836020036101000a031916815260200191505b5097505050505050505060405180910390f35b341561082357600080fd5b610997600480803573ffffffffffffffffffffffffffffffffffffffff1690602001909190803573ffffffffffffffffffffffffffffffffffffffff1690602001909190803590602001908201803590602001908080601f0160208091040260200160405190810160405280939291908181526020018383808284378201915050505050509190803590602001908201803590602001908080601f0160208091040260200160405190810160405280939291908181526020018383808284378201915050505050509190803590602001909190803590602001908201803590602001908080601f0160208091040260200160405190810160405280939291908181526020018383808284378201915050505050509190803590602001909190803590602001908201803590602001908080601f016020809104026020016040519081016040528093929190818152602001838380828437820191505050505050919080351515906020019091905050611b93565b005b34156109a457600080fd5b610b58600480803573ffffffffffffffffffffffffffffffffffffffff169060200190919080359060200190820180359060200190808060200260200160405190810160405280939291908181526020018383602002808284378201915050505050509190803573ffffffffffffffffffffffffffffffffffffffff1690602001909190803573ffffffffffffffffffffffffffffffffffffffff1690602001909190803590602001909190803573ffffffffffffffffffffffffffffffffffffffff1690602001909190803573ffffffffffffffffffffffffffffffffffffffff16906020019091908035906020019082018035906020019080806020026020016040519081016040528093929190818152602001838360200280828437820191505050505050919080359060200190820180359060200190808060200260200160405190810160405280939291908181526020018383602002808284378201915050505050509190803590602001908201803590602001908080601f01602080910402602001604051908101604052809392919081815260200183838082843782019150505050505091905050611cb7565b005b3415610b6557600080fd5b610bf0600480803573ffffffffffffffffffffffffffffffffffffffff1690602001909190803573ffffffffffffffffffffffffffffffffffffffff1690602001909190803590602001908201803590602001908080602002602001604051908101604052809392919081815260200183836020028082843782019150505050505091905050611f7b565b005b3415610bfd57600080fd5b610c29600480803573ffffffffffffffffffffffffffffffffffffffff16906020019091905050612057565b005b3415610c3657600080fd5b610ca9600480803573ffffffffffffffffffffffffffffffffffffffff1690602001909190803573ffffffffffffffffffffffffffffffffffffffff1690602001909190803573ffffffffffffffffffffffffffffffffffffffff169060200190919080359060200190919050506120b5565b005b3415610cb657600080fd5b610d41600480803573ffffffffffffffffffffffffffffffffffffffff1690602001909190803573ffffffffffffffffffffffffffffffffffffffff16906020019091908035906020019082018035906020019080806020026020016040519081016040528093929190818152602001838360200280828437820191505050505050919050506121e1565b005b3415610d4e57600080fd5b610d7a600480803573ffffffffffffffffffffffffffffffffffffffff169060200190919050506122bd565b60405180806020018060200185815260200180602001848103845288818151815260200191508051906020019060200280838360005b83811015610dcb578082015181840152602081019050610db0565b50505050905001848103835287818151815260200191508051906020019060200280838360005b83811015610e0d578082015181840152602081019050610df2565b50505050905001848103825285818151815260200191508051906020019060200280838360005b83811015610e4f578082015181840152602081019050610e34565b5050505090500197505050505050505060405180910390f35b3415610e7357600080fd5b610f69600480803573ffffffffffffffffffffffffffffffffffffffff169060200190919080359060200190820180359060200190808060200260200160405190810160405280939291908181526020018383602002808284378201915050505050509190803573ffffffffffffffffffffffffffffffffffffffff1690602001909190803573ffffffffffffffffffffffffffffffffffffffff1690602001909190803590602001909190803590602001908201803590602001908080601f01602080910402602001604051908101604052809392919081815260200183838082843782019150505050505091905050612652565b005b6000600360008373ffffffffffffffffffffffffffffffffffffffff1673ffffffffffffffffffffffffffffffffffffffff16815260200190815260200160002060070160009054906101000a900460ff169050919050565b610fcc61275f565b600260008373ffffffffffffffffffffffffffffffffffffffff1673ffffffffffffffffffffffffffffffffffffffff16815260200190815260200160002060000180548060200260200160405190810160405280929190818152602001828054801561108e57602002820191906000526020600020905b8160009054906101000a900473ffffffffffffffffffffffffffffffffffffffff1673ffffffffffffffffffffffffffffffffffffffff1681526020019060010190808311611044575b50505050509050919050565b60006110a4612773565b6110ac612773565b60006110b6612773565b60006110c0612773565b600360008973ffffffffffffffffffffffffffffffffffffffff1673ffffffffffffffffffffffffffffffffffffffff16815260200190815260200160002060000160009054906101000a900473ffffffffffffffffffffffffffffffffffffffff16600360008a73ffffffffffffffffffffffffffffffffffffffff1673ffffffffffffffffffffffffffffffffffffffff168152602001908152602001600020600101600360008b73ffffffffffffffffffffffffffffffffffffffff1673ffffffffffffffffffffffffffffffffffffffff168152602001908152602001600020600201600360008c73ffffffffffffffffffffffffffffffffffffffff1673ffffffffffffffffffffffffffffffffffffffff16815260200190815260200160002060030154600360008d73ffffffffffffffffffffffffffffffffffffffff1673ffffffffffffffffffffffffffffffffffffffff168152602001908152602001600020600401600360008e73ffffffffffffffffffffffffffffffffffffffff1673ffffffffffffffffffffffffffffffffffffffff16815260200190815260200160002060050154600360008f73ffffffffffffffffffffffffffffffffffffffff1673ffffffffffffffffffffffffffffffffffffffff168152602001908152602001600020600601858054600181600116156101000203166002900480601f0160208091040260200160405190810160405280929190818152602001828054600181600116156101000203166002900480156113465780601f1061131b57610100808354040283529160200191611346565b820191906000526020600020905b81548152906001019060200180831161132957829003601f168201915b50505050509550848054600181600116156101000203166002900480601f0160208091040260200160405190810160405280929190818152602001828054600181600116156101000203166002900480156113e25780601f106113b7576101008083540402835291602001916113e2565b820191906000526020600020905b8154815290600101906020018083116113c557829003601f168201915b50505050509450828054600181600116156101000203166002900480601f01602080910402602001604051908101604052809291908181526020018280546001816001161561010002031660029004801561147e5780601f106114535761010080835404028352916020019161147e565b820191906000526020600020905b81548152906001019060200180831161146157829003601f168201915b50505050509250808054600181600116156101000203166002900480601f01602080910402602001604051908101604052809291908181526020018280546001816001161561010002031660029004801561151a5780601f106114ef5761010080835404028352916020019161151a565b820191906000526020600020905b8154815290600101906020018083116114fd57829003601f168201915b505050505090509650965096509650965096509650919395979092949650565b600061154e89898989898989896001611b93565b6000808973ffffffffffffffffffffffffffffffffffffffff1673ffffffffffffffffffffffffffffffffffffffff16815260200190815260200160002060010160009054906101000a900473ffffffffffffffffffffffffffffffffffffffff169050600260008273ffffffffffffffffffffffffffffffffffffffff1673ffffffffffffffffffffffffffffffffffffffff16815260200190815260200160002060000180548060010182816116069190612787565b916000526020600020900160008b909190916101000a81548173ffffffffffffffffffffffffffffffffffffffff021916908373ffffffffffffffffffffffffffffffffffffffff16021790555050600580548060010182816116699190612787565b916000526020600020900160008b909190916101000a81548173ffffffffffffffffffffffffffffffffffffffff021916908373ffffffffffffffffffffffffffffffffffffffff16021790555050505050505050505050565b806000808473ffffffffffffffffffffffffffffffffffffffff1673ffffffffffffffffffffffffffffffffffffffff16815260200190815260200160002060030154016000808473ffffffffffffffffffffffffffffffffffffffff1673ffffffffffffffffffffffffffffffffffffffff168152602001908152602001600020600301819055505050565b61175861275f565b600160008373ffffffffffffffffffffffffffffffffffffffff1673ffffffffffffffffffffffffffffffffffffffff16815260200190815260200160002060000180548060200260200160405190810160405280929190818152602001828054801561181a57602002820191906000526020600020905b8160009054906101000a900473ffffffffffffffffffffffffffffffffffffffff1673ffffffffffffffffffffffffffffffffffffffff16815260200190600101908083116117d0575b50505050509050919050565b61182e61275f565b60058054806020026020016040519081016040528092919081815260200182805480156118b057602002820191906000526020600020905b8160009054906101000a900473ffffffffffffffffffffffffffffffffffffffff1673ffffffffffffffffffffffffffffffffffffffff1681526020019060010190808311611866575b5050505050905090565b6118c261275f565b60008060006118cf612773565b600460008773ffffffffffffffffffffffffffffffffffffffff1673ffffffffffffffffffffffffffffffffffffffff168152602001908152602001600020600001600460008873ffffffffffffffffffffffffffffffffffffffff1673ffffffffffffffffffffffffffffffffffffffff16815260200190815260200160002060010160009054906101000a900473ffffffffffffffffffffffffffffffffffffffff16600460008973ffffffffffffffffffffffffffffffffffffffff1673ffffffffffffffffffffffffffffffffffffffff16815260200190815260200160002060020160009054906101000a900473ffffffffffffffffffffffffffffffffffffffff16600460008a73ffffffffffffffffffffffffffffffffffffffff1673ffffffffffffffffffffffffffffffffffffffff16815260200190815260200160002060030154600460008b73ffffffffffffffffffffffffffffffffffffffff1673ffffffffffffffffffffffffffffffffffffffff16815260200190815260200160002060040184805480602002602001604051908101604052809291908181526020018280548015611add57602002820191906000526020600020905b8160009054906101000a900473ffffffffffffffffffffffffffffffffffffffff1673ffffffffffffffffffffffffffffffffffffffff1681526020019060010190808311611a93575b50505050509450808054600181600116156101000203166002900480601f016020809104026020016040519081016040528092919081815260200182805460018160011615610100020316600290048015611b795780601f10611b4e57610100808354040283529160200191611b79565b820191906000526020600020905b815481529060010190602001808311611b5c57829003601f168201915b505050505090509450945094509450945091939590929450565b6000600360008b73ffffffffffffffffffffffffffffffffffffffff1673ffffffffffffffffffffffffffffffffffffffff1681526020019081526020016000209050888160000160006101000a81548173ffffffffffffffffffffffffffffffffffffffff021916908373ffffffffffffffffffffffffffffffffffffffff16021790555087816001019080519060200190611c319291906127b3565b5086816002019080519060200190611c4a9291906127b3565b5085816003018190555084816004019080519060200190611c6c9291906127b3565b5083816005018190555082816006019080519060200190611c8e9291906127b3565b50818160070160006101000a81548160ff02191690831515021790555050505050505050505050565b6000866000808b73ffffffffffffffffffffffffffffffffffffffff1673ffffffffffffffffffffffffffffffffffffffff16815260200190815260200160002060030154016000808b73ffffffffffffffffffffffffffffffffffffffff1673ffffffffffffffffffffffffffffffffffffffff16815260200190815260200160002060030181905550866000808a73ffffffffffffffffffffffffffffffffffffffff1673ffffffffffffffffffffffffffffffffffffffff16815260200190815260200160002060030154036000808a73ffffffffffffffffffffffffffffffffffffffff1673ffffffffffffffffffffffffffffffffffffffff16815260200190815260200160002060030181905550611dd98b8b8b8b8b87612652565b6000808a73ffffffffffffffffffffffffffffffffffffffff1673ffffffffffffffffffffffffffffffffffffffff1681526020019081526020016000206002018054806001018281611e2c9190612787565b916000526020600020900160008d909190916101000a81548173ffffffffffffffffffffffffffffffffffffffff021916908373ffffffffffffffffffffffffffffffffffffffff160217905550506000808973ffffffffffffffffffffffffffffffffffffffff1673ffffffffffffffffffffffffffffffffffffffff1681526020019081526020016000206002018054806001018281611ece9190612787565b916000526020600020900160008d909190916101000a81548173ffffffffffffffffffffffffffffffffffffffff021916908373ffffffffffffffffffffffffffffffffffffffff16021790555050611f28888786611f7b565b611f338986856121e1565b600090505b8951811015611f6e57611f618a82815181101515611f5257fe5b90602001906020020151612057565b8080600101915050611f38565b5050505050505050505050565b816000808573ffffffffffffffffffffffffffffffffffffffff1673ffffffffffffffffffffffffffffffffffffffff16815260200190815260200160002060000160006101000a81548173ffffffffffffffffffffffffffffffffffffffff021916908373ffffffffffffffffffffffffffffffffffffffff16021790555080600160008473ffffffffffffffffffffffffffffffffffffffff1673ffffffffffffffffffffffffffffffffffffffff1681526020019081526020016000206000019080519060200190612051929190612833565b50505050565b6000600360008373ffffffffffffffffffffffffffffffffffffffff1673ffffffffffffffffffffffffffffffffffffffff16815260200190815260200160002060070160006101000a81548160ff02191690831515021790555050565b60008060008673ffffffffffffffffffffffffffffffffffffffff1673ffffffffffffffffffffffffffffffffffffffff1681526020019081526020016000209050838160000160006101000a81548173ffffffffffffffffffffffffffffffffffffffff021916908373ffffffffffffffffffffffffffffffffffffffff160217905550828160010160006101000a81548173ffffffffffffffffffffffffffffffffffffffff021916908373ffffffffffffffffffffffffffffffffffffffff1602179055508181600301819055506121b08585600060405180591061219a5750595b9080825280602002602001820160405250611f7b565b6121da858460006040518059106121c45750595b90808252806020026020018201604052506121e1565b5050505050565b816000808573ffffffffffffffffffffffffffffffffffffffff1673ffffffffffffffffffffffffffffffffffffffff16815260200190815260200160002060010160006101000a81548173ffffffffffffffffffffffffffffffffffffffff021916908373ffffffffffffffffffffffffffffffffffffffff16021790555080600260008473ffffffffffffffffffffffffffffffffffffffff1673ffffffffffffffffffffffffffffffffffffffff16815260200190815260200160002060000190805190602001906122b7929190612833565b50505050565b6122c561275f565b6122cd61275f565b60006122d761275f565b6000806000808873ffffffffffffffffffffffffffffffffffffffff1673ffffffffffffffffffffffffffffffffffffffff16815260200190815260200160002060000160009054906101000a900473ffffffffffffffffffffffffffffffffffffffff1691506000808873ffffffffffffffffffffffffffffffffffffffff1673ffffffffffffffffffffffffffffffffffffffff16815260200190815260200160002060010160009054906101000a900473ffffffffffffffffffffffffffffffffffffffff169050600160008373ffffffffffffffffffffffffffffffffffffffff1673ffffffffffffffffffffffffffffffffffffffff168152602001908152602001600020600001600260008373ffffffffffffffffffffffffffffffffffffffff1673ffffffffffffffffffffffffffffffffffffffff1681526020019081526020016000206000016000808a73ffffffffffffffffffffffffffffffffffffffff1673ffffffffffffffffffffffffffffffffffffffff168152602001908152602001600020600301546000808b73ffffffffffffffffffffffffffffffffffffffff1673ffffffffffffffffffffffffffffffffffffffff1681526020019081526020016000206002018380548060200260200160405190810160405280929190818152602001828054801561252a57602002820191906000526020600020905b8160009054906101000a900473ffffffffffffffffffffffffffffffffffffffff1673ffffffffffffffffffffffffffffffffffffffff16815260200190600101908083116124e0575b50505050509350828054806020026020016040519081016040528092919081815260200182805480156125b257602002820191906000526020600020905b8160009054906101000a900473ffffffffffffffffffffffffffffffffffffffff1673ffffffffffffffffffffffffffffffffffffffff1681526020019060010190808311612568575b505050505092508080548060200260200160405190810160405280929190818152602001828054801561263a57602002820191906000526020600020905b8160009054906101000a900473ffffffffffffffffffffffffffffffffffffffff1673ffffffffffffffffffffffffffffffffffffffff16815260200190600101908083116125f0575b50505050509050955095509550955050509193509193565b6000600460008873ffffffffffffffffffffffffffffffffffffffff1673ffffffffffffffffffffffffffffffffffffffff1681526020019081526020016000209050858160000190805190602001906126ad929190612833565b50848160010160006101000a81548173ffffffffffffffffffffffffffffffffffffffff021916908373ffffffffffffffffffffffffffffffffffffffff160217905550838160020160006101000a81548173ffffffffffffffffffffffffffffffffffffffff021916908373ffffffffffffffffffffffffffffffffffffffff160217905550828160030181905550818160040190805190602001906127559291906127b3565b5050505050505050565b602060405190810160405280600081525090565b602060405190810160405280600081525090565b8154818355818115116127ae578183600052602060002091820191016127ad91906128bd565b5b505050565b828054600181600116156101000203166002900490600052602060002090601f016020900481019282601f106127f457805160ff1916838001178555612822565b82800160010185558215612822579182015b82811115612821578251825591602001919060010190612806565b5b50905061282f91906128bd565b5090565b8280548282559060005260206000209081019282156128ac579160200282015b828111156128ab5782518260006101000a81548173ffffffffffffffffffffffffffffffffffffffff021916908373ffffffffffffffffffffffffffffffffffffffff16021790555091602001919060010190612853565b5b5090506128b991906128e2565b5090565b6128df91905b808211156128db5760008160009055506001016128c3565b5090565b90565b61292291905b8082111561291e57600081816101000a81549073ffffffffffffffffffffffffffffffffffffffff0219169055506001016128e8565b5090565b905600a165627a7a72305820ec1c8738fdefffba9a0cba044dff4c01d49fcee26d2dd156d248bbf46d81e6f90029",
  "source": "pragma solidity ^0.4.21;\n    \n/**\n * @title Controller.\n * @author Yufei Zhang\n */\ncontract Controller {\n    /*--------------------------------------------------------------------------\n     * Define all of the structures we are going to store in block chain.\n     *--------------------------------------------------------------------------\n     */\n    struct Account {\n        address cartId;          // an address point to a shopping cart\n        address prodCartId;      // an address point to puppies a user sopports\n        address[] transactions;  // a list of Transaction\n        uint balance;\n    }\n        \n    struct Cart {\n        address[] puppies;       // a list of items that are going to check out\n    }\n        \n    struct Product {\n        address[] puppies;       // a list of items that are uploaded by a user\n    }\n        \n    struct Puppy {\n        address sellerId;        // the id of the seller\n        string name;             // name of the puppy\n        string breed;            // breed of the puppy\n        uint age;                // age of the puppy\n        string birthPlace;       // birth place of the puppy\n        uint256 price;           // price of the puppy\n        string image;            // image url of the puppy\n        bool onSale;             // status of a Puppy\n    }\n        \n    struct Transaction {\n        address[] puppiesIds;    // id of multiple puppies\n        address seller;          // address of the seller\n        address buyer;           // address of the buyer\n        uint256 price;           // total price in the trade\n        string date;             // trade date\n    }\n        \n    /*--------------------------------------------------------------------------\n     * Define all of the mappings that we are going to use\n     *--------------------------------------------------------------------------\n     */\n    mapping (address => Account) accountsOnBC;\n    mapping (address => Cart) cartsOnBC;\n    mapping (address => Product) productsOnBC;\n    mapping (address => Puppy) puppiesOnBC;\n    mapping (address => Transaction) transactionsOnBC;\n    address[] allPuppies;\n        \n    /*--------------------------------------------------------------------------\n     * Define functions to set and get infomation of an Account.\n     *--------------------------------------------------------------------------\n     */\n    function setAccount(\n        address _accountId,\n        address _cartId, \n        address _prodCartId, \n        uint256 _balance\n    ) \n        public \n    { \n        var account = accountsOnBC[_accountId];\n        account.cartId = _cartId;\n        account.prodCartId = _prodCartId;\n        account.balance = _balance;\n        setCart(_accountId, _cartId, new address[](0));\n        setProduct(_accountId, _prodCartId, new address[](0));\n    }\n       \n    function getAccount(address _accountId) \n        view \n        public \n        returns (\n            address[], \n            address[], \n            uint256,\n            address[]\n        ) \n    {\n        address cId = accountsOnBC[_accountId].cartId;\n        address pId = accountsOnBC[_accountId].prodCartId;\n        return (\n            cartsOnBC[cId].puppies, \n            productsOnBC[pId].puppies,\n            accountsOnBC[_accountId].balance,\n            accountsOnBC[_accountId].transactions\n        );\n    } \n        \n    /*--------------------------------------------------------------------------\n     * Define functions to set and get infomation of a Cart.\n     *--------------------------------------------------------------------------\n     */\n    function setCart(\n        address _userId,\n        address _cartId,\n        address[] _puppiesIds\n    ) \n        public \n    {   \n        accountsOnBC[_userId].cartId = _cartId;\n        cartsOnBC[_cartId].puppies =  _puppiesIds;\n    }\n        \n    function getCart(address _cartId) view public returns (address[]) {\n        return (cartsOnBC[_cartId].puppies);\n    }\n        \n    /*--------------------------------------------------------------------------\n     * Define functions to set and get infomation of an product.\n     *--------------------------------------------------------------------------\n     */\n    function setProduct(\n        address _userId,\n        address _productId,\n        address[] _puppiesIds\n    ) \n        public \n    {\n        accountsOnBC[_userId].prodCartId = _productId;\n        productsOnBC[_productId].puppies =  _puppiesIds;\n    }\n    \n    function getProducts(address _productId) view public returns (address[]) {\n        return (productsOnBC[_productId].puppies);\n    }\n        \n    /*--------------------------------------------------------------------------\n     * Define functions to set and get infomation of a Puppy.\n     *--------------------------------------------------------------------------\n     */\n    function setPuppy(\n        address _puppyId,\n        address _sellerId,\n        string _name,\n        string _breed,\n        uint _age,\n        string _birthPlace,\n        uint256 _price,\n        string _image,\n        bool _onSale\n    ) \n        public \n    { \n        var puppy = puppiesOnBC[_puppyId];\n        puppy.sellerId = _sellerId;\n        puppy.name = _name;\n        puppy.breed = _breed;\n        puppy.age = _age;\n        puppy.birthPlace = _birthPlace;\n        puppy.price = _price;\n        puppy.image = _image;\n        puppy.onSale = _onSale;\n    }\n    \n    function getPuppyInfo(address _puppyId) \n        view \n        public \n        returns (\n            address,\n            string, \n            string, \n            uint,\n            string,\n            uint256,\n            string\n        ) \n    {\n        return (\n            puppiesOnBC[_puppyId].sellerId,\n            puppiesOnBC[_puppyId].name, \n            puppiesOnBC[_puppyId].breed, \n            puppiesOnBC[_puppyId].age,\n            puppiesOnBC[_puppyId].birthPlace,\n            puppiesOnBC[_puppyId].price,\n            puppiesOnBC[_puppyId].image\n        );\n    }\n    \n    function getPuppyStatus(address _puppyId) view public returns (bool) {\n        return (puppiesOnBC[_puppyId].onSale);\n    }\n     \n    /*--------------------------------------------------------------------------\n     * Define functions to set and get infomation of a Transaction.\n     *--------------------------------------------------------------------------\n     */\n    function setTransaction(\n        address _transId,\n        address[] _puppiesIds, \n        address _seller, \n        address _buyer, \n        uint256 _price,\n        string _now\n    ) \n        public \n    { \n        var transaction = transactionsOnBC[_transId];\n        transaction.puppiesIds = _puppiesIds;\n        transaction.seller = _seller;\n        transaction.buyer = _buyer;\n        transaction.price = _price;\n        transaction.date = _now;\n    }\n       \n    function getTransaction(address _transId) \n        view \n        public \n        returns (\n            address[], \n            address, \n            address,\n            uint256,\n            string\n        ) \n    {\n        return (\n            transactionsOnBC[_transId].puppiesIds, \n            transactionsOnBC[_transId].seller, \n            transactionsOnBC[_transId].buyer,\n            transactionsOnBC[_transId].price,\n            transactionsOnBC[_transId].date\n        );\n    }\n    \n    /*--------------------------------------------------------------------------\n     * Define othere functions that will be used in the block chain.\n     *--------------------------------------------------------------------------\n     */\n    function recharge(address _userId, uint256 _price) public {\n        accountsOnBC[_userId].balance = accountsOnBC[_userId].balance + _price;\n    }\n    \n    function checkOut(\n        // these will be store in a trasaction\n        address _transId,\n        address[] _puppiesIds,\n        address _seller,\n        address _buyer,\n        uint256 _price,\n        // these are helping to update cart and product\n        address _cartId,\n        address _prodCartId,\n        address[] _cart,\n        address[] _prodCart,\n        // tradeTime\n        string _now\n    ) \n        public\n    {\n        // update balance\n        accountsOnBC[_seller].balance = accountsOnBC[_seller].balance + _price;\n        accountsOnBC[_buyer].balance = accountsOnBC[_buyer].balance - _price;\n        // record transaction\n        setTransaction(_transId, _puppiesIds, _seller, _buyer, _price, _now);\n        accountsOnBC[_seller].transactions.push(_transId);\n        accountsOnBC[_buyer].transactions.push(_transId);\n        // update cart and prodcart\n        setCart(_buyer, _cartId, _cart);\n        setProduct(_seller, _prodCartId, _prodCart);\n        // update Puppy Status \n        for (uint i = 0; i < _puppiesIds.length; i++) {\n            markSoldPuppy(_puppiesIds[i]);\n        }\n    }\n    \n    function addPuppy(\n        address _puppyId,\n        address _sellerId,\n        string _name,\n        string _breed,\n        uint _age,\n        string _birthPlace,\n        uint256 _price,\n        string _image\n    )\n        public \n    {\n        setPuppy(\n            _puppyId, \n            _sellerId,\n            _name, \n            _breed, \n            _age, \n            _birthPlace, \n            _price, \n            _image, \n            true\n        );\n        address prodCartId = accountsOnBC[_sellerId].prodCartId;\n        productsOnBC[prodCartId].puppies.push(_puppyId);\n        allPuppies.push(_puppyId);\n    }\n    \n    function markSoldPuppy(address _puppyId) public {\n        puppiesOnBC[_puppyId].onSale = false;\n    }\n    \n    function getPuppyList() view public returns (address[]) {\n        return (allPuppies);\n    }\n}\n",
  "sourcePath": "/Users/Yufei/Github/Decentralised-Shopping-Cart/PetShop/contracts/Controller.sol",
  "compiler": {
    "name": "solc",
    "version": "0.4.21+commit.dfe3193c.Emscripten.clang"
  },
  "schemaVersion": "2.0.0",
  "updatedAt": "2018-05-21T09:19:59.695Z"
}